{
	"data": {
		"bytecode": {
			"linkReferences": {},
			"object": "608060405234801561000f575f80fd5b506040518060400160405280600d81526020017f4361724c656173696e674e4654000000000000000000000000000000000000008152506040518060400160405280600581526020017f434c4e4654000000000000000000000000000000000000000000000000000000815250815f908161008a91906102dc565b50806001908161009a91906102dc565b5050506103ab565b5f81519050919050565b7f4e487b71000000000000000000000000000000000000000000000000000000005f52604160045260245ffd5b7f4e487b71000000000000000000000000000000000000000000000000000000005f52602260045260245ffd5b5f600282049050600182168061011d57607f821691505b6020821081036101305761012f6100d9565b5b50919050565b5f819050815f5260205f209050919050565b5f6020601f8301049050919050565b5f82821b905092915050565b5f600883026101927fffffffffffffffffffffffffffffffffffffffffffffffffffffffffffffffff82610157565b61019c8683610157565b95508019841693508086168417925050509392505050565b5f819050919050565b5f819050919050565b5f6101e06101db6101d6846101b4565b6101bd565b6101b4565b9050919050565b5f819050919050565b6101f9836101c6565b61020d610205826101e7565b848454610163565b825550505050565b5f90565b610221610215565b61022c8184846101f0565b505050565b5b8181101561024f576102445f82610219565b600181019050610232565b5050565b601f8211156102945761026581610136565b61026e84610148565b8101602085101561027d578190505b61029161028985610148565b830182610231565b50505b505050565b5f82821c905092915050565b5f6102b45f1984600802610299565b1980831691505092915050565b5f6102cc83836102a5565b9150826002028217905092915050565b6102e5826100a2565b67ffffffffffffffff8111156102fe576102fd6100ac565b5b6103088254610106565b610313828285610253565b5f60209050601f831160018114610344575f8415610332578287015190505b61033c85826102c1565b8655506103a3565b601f19841661035286610136565b5f5b8281101561037957848901518255600182019150602085019450602081019050610354565b868310156103965784890151610392601f8916826102a5565b8355505b6001600288020188555050505b505050505050565b612696806103b85f395ff3fe608060405234801561000f575f80fd5b5060043610610109575f3560e01c80635e5380ce116100a0578063a22cb4651161006f578063a22cb465146102de578063b88d4fde146102fa578063c87b56dd14610316578063e985e9c514610346578063f7746e361461037657610109565b80635e5380ce1461022c5780636352211e1461026057806370a082311461029057806395d89b41146102c057610109565b806312376ca2116100dc57806312376ca2146101a757806323b872dd146101c35780632655bd73146101df57806342842e0e1461021057610109565b806301ffc9a71461010d57806306fdde031461013d578063081812fc1461015b578063095ea7b31461018b575b5f80fd5b610127600480360381019061012291906119d0565b6103a9565b6040516101349190611a15565b60405180910390f35b61014561048a565b6040516101529190611a9e565b60405180910390f35b61017560048036038101906101709190611af1565b610519565b6040516101829190611b5b565b60405180910390f35b6101a560048036038101906101a09190611b9e565b610534565b005b6101c160048036038101906101bc9190611d75565b61054a565b005b6101dd60048036038101906101d89190611e71565b61068a565b005b6101f960048036038101906101f49190611ec1565b610789565b604051610207929190611f0e565b60405180910390f35b61022a60048036038101906102259190611e71565b6107e2565b005b61024660048036038101906102419190611af1565b610801565b604051610257959493929190611f44565b60405180910390f35b61027a60048036038101906102759190611af1565b61083f565b6040516102879190611b5b565b60405180910390f35b6102aa60048036038101906102a59190611f95565b610850565b6040516102b79190611fc0565b60405180910390f35b6102c8610906565b6040516102d59190611a9e565b60405180910390f35b6102f860048036038101906102f39190612003565b610996565b005b610314600480360381019061030f91906120df565b6109ac565b005b610330600480360381019061032b9190611af1565b6109d1565b60405161033d9190611a9e565b60405180910390f35b610360600480360381019061035b919061215f565b610a37565b60405161036d9190611a15565b60405180910390f35b610390600480360381019061038b9190611af1565b610ac5565b6040516103a094939291906121ac565b60405180910390f35b5f7f80ac58cd000000000000000000000000000000000000000000000000000000007bffffffffffffffffffffffffffffffffffffffffffffffffffffffff1916827bffffffffffffffffffffffffffffffffffffffffffffffffffffffff1916148061047357507f5b5e139f000000000000000000000000000000000000000000000000000000007bffffffffffffffffffffffffffffffffffffffffffffffffffffffff1916827bffffffffffffffffffffffffffffffffffffffffffffffffffffffff1916145b80610483575061048282610c0a565b5b9050919050565b60605f80546104989061222a565b80601f01602080910402602001604051908101604052809291908181526020018280546104c49061222a565b801561050f5780601f106104e65761010080835404028352916020019161050f565b820191905f5260205f20905b8154815290600101906020018083116104f257829003601f168201915b5050505050905090565b5f61052382610c73565b5061052d82610cf9565b9050919050565b6105468282610541610d32565b610d39565b5050565b5f6105556006610d4b565b905060405180608001604052808a81526020018981526020018861ffff1681526020018781525060075f8381526020019081526020015f205f820151815f0190816105a091906123f7565b5060208201518160010190816105b691906123f7565b506040820151816002015f6101000a81548161ffff021916908361ffff160217905550606082015181600301559050506040518060a001604052808781526020018681526020018560ff1681526020018481526020018381525060085f8381526020019081526020015f205f820151815f0155602082015181600101556040820151816002015f6101000a81548160ff021916908360ff16021790555060608201518160030155608082015181600401559050506106748a82610d57565b61067e6006610d74565b50505050505050505050565b5f73ffffffffffffffffffffffffffffffffffffffff168273ffffffffffffffffffffffffffffffffffffffff16036106fa575f6040517f64a0ae920000000000000000000000000000000000000000000000000000000081526004016106f19190611b5b565b60405180910390fd5b5f61070d8383610708610d32565b610d88565b90508373ffffffffffffffffffffffffffffffffffffffff168173ffffffffffffffffffffffffffffffffffffffff1614610783578382826040517f64283d7b00000000000000000000000000000000000000000000000000000000815260040161077a939291906124c6565b60405180910390fd5b50505050565b6009602052815f5260405f2081815481106107a2575f80fd5b905f5260205f2090600202015f9150915050805f015f9054906101000a900473ffffffffffffffffffffffffffffffffffffffff16908060010154905082565b6107fc83838360405180602001604052805f8152506109ac565b505050565b6008602052805f5260405f205f91509050805f015490806001015490806002015f9054906101000a900460ff16908060030154908060040154905085565b5f61084982610c73565b9050919050565b5f8073ffffffffffffffffffffffffffffffffffffffff168273ffffffffffffffffffffffffffffffffffffffff16036108c1575f6040517f89c62b640000000000000000000000000000000000000000000000000000000081526004016108b89190611b5b565b60405180910390fd5b60035f8373ffffffffffffffffffffffffffffffffffffffff1673ffffffffffffffffffffffffffffffffffffffff1681526020019081526020015f20549050919050565b6060600180546109159061222a565b80601f01602080910402602001604051908101604052809291908181526020018280546109419061222a565b801561098c5780601f106109635761010080835404028352916020019161098c565b820191905f5260205f20905b81548152906001019060200180831161096f57829003601f168201915b5050505050905090565b6109a86109a1610d32565b8383610f93565b5050565b6109b784848461068a565b6109cb6109c2610d32565b858585856110fc565b50505050565b60606109dc82610c73565b505f6109e66112a8565b90505f815111610a045760405180602001604052805f815250610a2f565b80610a0e846112be565b604051602001610a1f929190612535565b6040516020818303038152906040525b915050919050565b5f60055f8473ffffffffffffffffffffffffffffffffffffffff1673ffffffffffffffffffffffffffffffffffffffff1681526020019081526020015f205f8373ffffffffffffffffffffffffffffffffffffffff1673ffffffffffffffffffffffffffffffffffffffff1681526020019081526020015f205f9054906101000a900460ff16905092915050565b6007602052805f5260405f205f91509050805f018054610ae49061222a565b80601f0160208091040260200160405190810160405280929190818152602001828054610b109061222a565b8015610b5b5780601f10610b3257610100808354040283529160200191610b5b565b820191905f5260205f20905b815481529060010190602001808311610b3e57829003601f168201915b505050505090806001018054610b709061222a565b80601f0160208091040260200160405190810160405280929190818152602001828054610b9c9061222a565b8015610be75780601f10610bbe57610100808354040283529160200191610be7565b820191905f5260205f20905b815481529060010190602001808311610bca57829003601f168201915b505050505090806002015f9054906101000a900461ffff16908060030154905084565b5f7f01ffc9a7000000000000000000000000000000000000000000000000000000007bffffffffffffffffffffffffffffffffffffffffffffffffffffffff1916827bffffffffffffffffffffffffffffffffffffffffffffffffffffffff1916149050919050565b5f80610c7e83611388565b90505f73ffffffffffffffffffffffffffffffffffffffff168173ffffffffffffffffffffffffffffffffffffffff1603610cf057826040517f7e273289000000000000000000000000000000000000000000000000000000008152600401610ce79190611fc0565b60405180910390fd5b80915050919050565b5f60045f8381526020019081526020015f205f9054906101000a900473ffffffffffffffffffffffffffffffffffffffff169050919050565b5f33905090565b610d4683838360016113c1565b505050565b5f815f01549050919050565b610d70828260405180602001604052805f815250611580565b5050565b6001815f015f828254019250508190555050565b5f80610d9384611388565b90505f73ffffffffffffffffffffffffffffffffffffffff168373ffffffffffffffffffffffffffffffffffffffff1614610dd457610dd38184866115a3565b5b5f73ffffffffffffffffffffffffffffffffffffffff168173ffffffffffffffffffffffffffffffffffffffff1614610e5f57610e135f855f806113c1565b600160035f8373ffffffffffffffffffffffffffffffffffffffff1673ffffffffffffffffffffffffffffffffffffffff1681526020019081526020015f205f82825403925050819055505b5f73ffffffffffffffffffffffffffffffffffffffff168573ffffffffffffffffffffffffffffffffffffffff1614610ede57600160035f8773ffffffffffffffffffffffffffffffffffffffff1673ffffffffffffffffffffffffffffffffffffffff1681526020019081526020015f205f82825401925050819055505b8460025f8681526020019081526020015f205f6101000a81548173ffffffffffffffffffffffffffffffffffffffff021916908373ffffffffffffffffffffffffffffffffffffffff160217905550838573ffffffffffffffffffffffffffffffffffffffff168273ffffffffffffffffffffffffffffffffffffffff167fddf252ad1be2c89b69c2b068fc378daa952ba7f163c4a11628f55a4df523b3ef60405160405180910390a4809150509392505050565b5f73ffffffffffffffffffffffffffffffffffffffff168273ffffffffffffffffffffffffffffffffffffffff160361100357816040517f5b08ba18000000000000000000000000000000000000000000000000000000008152600401610ffa9190611b5b565b60405180910390fd5b8060055f8573ffffffffffffffffffffffffffffffffffffffff1673ffffffffffffffffffffffffffffffffffffffff1681526020019081526020015f205f8473ffffffffffffffffffffffffffffffffffffffff1673ffffffffffffffffffffffffffffffffffffffff1681526020019081526020015f205f6101000a81548160ff0219169083151502179055508173ffffffffffffffffffffffffffffffffffffffff168373ffffffffffffffffffffffffffffffffffffffff167f17307eab39ab6107e8899845ad3d59bd9653f200f220920489ca2b5937696c31836040516110ef9190611a15565b60405180910390a3505050565b5f8373ffffffffffffffffffffffffffffffffffffffff163b11156112a1578273ffffffffffffffffffffffffffffffffffffffff1663150b7a02868685856040518563ffffffff1660e01b815260040161115a94939291906125aa565b6020604051808303815f875af192505050801561119557506040513d601f19601f820116820180604052508101906111929190612608565b60015b611216573d805f81146111c3576040519150601f19603f3d011682016040523d82523d5f602084013e6111c8565b606091505b505f81510361120e57836040517f64a0ae920000000000000000000000000000000000000000000000000000000081526004016112059190611b5b565b60405180910390fd5b805181602001fd5b63150b7a0260e01b7bffffffffffffffffffffffffffffffffffffffffffffffffffffffff1916817bffffffffffffffffffffffffffffffffffffffffffffffffffffffff19161461129f57836040517f64a0ae920000000000000000000000000000000000000000000000000000000081526004016112969190611b5b565b60405180910390fd5b505b5050505050565b606060405180602001604052805f815250905090565b60605f60016112cc84611666565b0190505f8167ffffffffffffffff8111156112ea576112e9611be4565b5b6040519080825280601f01601f19166020018201604052801561131c5781602001600182028036833780820191505090505b5090505f82602001820190505b60011561137d578080600190039150507f3031323334353637383961626364656600000000000000000000000000000000600a86061a8153600a858161137257611371612633565b5b0494505f8503611329575b819350505050919050565b5f60025f8381526020019081526020015f205f9054906101000a900473ffffffffffffffffffffffffffffffffffffffff169050919050565b80806113f957505f73ffffffffffffffffffffffffffffffffffffffff168273ffffffffffffffffffffffffffffffffffffffff1614155b1561152b575f61140884610c73565b90505f73ffffffffffffffffffffffffffffffffffffffff168373ffffffffffffffffffffffffffffffffffffffff161415801561147257508273ffffffffffffffffffffffffffffffffffffffff168173ffffffffffffffffffffffffffffffffffffffff1614155b801561148557506114838184610a37565b155b156114c757826040517fa9fbf51f0000000000000000000000000000000000000000000000000000000081526004016114be9190611b5b565b60405180910390fd5b811561152957838573ffffffffffffffffffffffffffffffffffffffff168273ffffffffffffffffffffffffffffffffffffffff167f8c5be1e5ebec7d5bd14f71427d1e84f3dd0314c0f7b2291e5b200ac8c7c3b92560405160405180910390a45b505b8360045f8581526020019081526020015f205f6101000a81548173ffffffffffffffffffffffffffffffffffffffff021916908373ffffffffffffffffffffffffffffffffffffffff16021790555050505050565b61158a83836117b7565b61159e611595610d32565b5f8585856110fc565b505050565b6115ae8383836118aa565b611661575f73ffffffffffffffffffffffffffffffffffffffff168373ffffffffffffffffffffffffffffffffffffffff160361162257806040517f7e2732890000000000000000000000000000000000000000000000000000000081526004016116199190611fc0565b60405180910390fd5b81816040517f177e802f000000000000000000000000000000000000000000000000000000008152600401611658929190611f0e565b60405180910390fd5b505050565b5f805f90507a184f03e93ff9f4daa797ed6e38ed64bf6a1f01000000000000000083106116c2577a184f03e93ff9f4daa797ed6e38ed64bf6a1f01000000000000000083816116b8576116b7612633565b5b0492506040810190505b6d04ee2d6d415b85acef810000000083106116ff576d04ee2d6d415b85acef810000000083816116f5576116f4612633565b5b0492506020810190505b662386f26fc10000831061172e57662386f26fc10000838161172457611723612633565b5b0492506010810190505b6305f5e1008310611757576305f5e100838161174d5761174c612633565b5b0492506008810190505b612710831061177c57612710838161177257611771612633565b5b0492506004810190505b6064831061179f576064838161179557611794612633565b5b0492506002810190505b600a83106117ae576001810190505b80915050919050565b5f73ffffffffffffffffffffffffffffffffffffffff168273ffffffffffffffffffffffffffffffffffffffff1603611827575f6040517f64a0ae9200000000000000000000000000000000000000000000000000000000815260040161181e9190611b5b565b60405180910390fd5b5f61183383835f610d88565b90505f73ffffffffffffffffffffffffffffffffffffffff168173ffffffffffffffffffffffffffffffffffffffff16146118a5575f6040517f73c6ac6e00000000000000000000000000000000000000000000000000000000815260040161189c9190611b5b565b60405180910390fd5b505050565b5f8073ffffffffffffffffffffffffffffffffffffffff168373ffffffffffffffffffffffffffffffffffffffff161415801561196157508273ffffffffffffffffffffffffffffffffffffffff168473ffffffffffffffffffffffffffffffffffffffff16148061192257506119218484610a37565b5b8061196057508273ffffffffffffffffffffffffffffffffffffffff1661194883610cf9565b73ffffffffffffffffffffffffffffffffffffffff16145b5b90509392505050565b5f604051905090565b5f80fd5b5f80fd5b5f7fffffffff0000000000000000000000000000000000000000000000000000000082169050919050565b6119af8161197b565b81146119b9575f80fd5b50565b5f813590506119ca816119a6565b92915050565b5f602082840312156119e5576119e4611973565b5b5f6119f2848285016119bc565b91505092915050565b5f8115159050919050565b611a0f816119fb565b82525050565b5f602082019050611a285f830184611a06565b92915050565b5f81519050919050565b5f82825260208201905092915050565b8281835e5f83830152505050565b5f601f19601f8301169050919050565b5f611a7082611a2e565b611a7a8185611a38565b9350611a8a818560208601611a48565b611a9381611a56565b840191505092915050565b5f6020820190508181035f830152611ab68184611a66565b905092915050565b5f819050919050565b611ad081611abe565b8114611ada575f80fd5b50565b5f81359050611aeb81611ac7565b92915050565b5f60208284031215611b0657611b05611973565b5b5f611b1384828501611add565b91505092915050565b5f73ffffffffffffffffffffffffffffffffffffffff82169050919050565b5f611b4582611b1c565b9050919050565b611b5581611b3b565b82525050565b5f602082019050611b6e5f830184611b4c565b92915050565b611b7d81611b3b565b8114611b87575f80fd5b50565b5f81359050611b9881611b74565b92915050565b5f8060408385031215611bb457611bb3611973565b5b5f611bc185828601611b8a565b9250506020611bd285828601611add565b9150509250929050565b5f80fd5b5f80fd5b7f4e487b71000000000000000000000000000000000000000000000000000000005f52604160045260245ffd5b611c1a82611a56565b810181811067ffffffffffffffff82111715611c3957611c38611be4565b5b80604052505050565b5f611c4b61196a565b9050611c578282611c11565b919050565b5f67ffffffffffffffff821115611c7657611c75611be4565b5b611c7f82611a56565b9050602081019050919050565b828183375f83830152505050565b5f611cac611ca784611c5c565b611c42565b905082815260208101848484011115611cc857611cc7611be0565b5b611cd3848285611c8c565b509392505050565b5f82601f830112611cef57611cee611bdc565b5b8135611cff848260208601611c9a565b91505092915050565b5f61ffff82169050919050565b611d1e81611d08565b8114611d28575f80fd5b50565b5f81359050611d3981611d15565b92915050565b5f60ff82169050919050565b611d5481611d3f565b8114611d5e575f80fd5b50565b5f81359050611d6f81611d4b565b92915050565b5f805f805f805f805f6101208a8c031215611d9357611d92611973565b5b5f611da08c828d01611b8a565b99505060208a013567ffffffffffffffff811115611dc157611dc0611977565b5b611dcd8c828d01611cdb565b98505060408a013567ffffffffffffffff811115611dee57611ded611977565b5b611dfa8c828d01611cdb565b9750506060611e0b8c828d01611d2b565b9650506080611e1c8c828d01611add565b95505060a0611e2d8c828d01611add565b94505060c0611e3e8c828d01611d61565b93505060e0611e4f8c828d01611add565b925050610100611e618c828d01611add565b9150509295985092959850929598565b5f805f60608486031215611e8857611e87611973565b5b5f611e9586828701611b8a565b9350506020611ea686828701611b8a565b9250506040611eb786828701611add565b9150509250925092565b5f8060408385031215611ed757611ed6611973565b5b5f611ee485828601611add565b9250506020611ef585828601611add565b9150509250929050565b611f0881611abe565b82525050565b5f604082019050611f215f830185611b4c565b611f2e6020830184611eff565b9392505050565b611f3e81611d3f565b82525050565b5f60a082019050611f575f830188611eff565b611f646020830187611eff565b611f716040830186611f35565b611f7e6060830185611eff565b611f8b6080830184611eff565b9695505050505050565b5f60208284031215611faa57611fa9611973565b5b5f611fb784828501611b8a565b91505092915050565b5f602082019050611fd35f830184611eff565b92915050565b611fe2816119fb565b8114611fec575f80fd5b50565b5f81359050611ffd81611fd9565b92915050565b5f806040838503121561201957612018611973565b5b5f61202685828601611b8a565b925050602061203785828601611fef565b9150509250929050565b5f67ffffffffffffffff82111561205b5761205a611be4565b5b61206482611a56565b9050602081019050919050565b5f61208361207e84612041565b611c42565b90508281526020810184848401111561209f5761209e611be0565b5b6120aa848285611c8c565b509392505050565b5f82601f8301126120c6576120c5611bdc565b5b81356120d6848260208601612071565b91505092915050565b5f805f80608085870312156120f7576120f6611973565b5b5f61210487828801611b8a565b945050602061211587828801611b8a565b935050604061212687828801611add565b925050606085013567ffffffffffffffff81111561214757612146611977565b5b612153878288016120b2565b91505092959194509250565b5f806040838503121561217557612174611973565b5b5f61218285828601611b8a565b925050602061219385828601611b8a565b9150509250929050565b6121a681611d08565b82525050565b5f6080820190508181035f8301526121c48187611a66565b905081810360208301526121d88186611a66565b90506121e7604083018561219d565b6121f46060830184611eff565b95945050505050565b7f4e487b71000000000000000000000000000000000000000000000000000000005f52602260045260245ffd5b5f600282049050600182168061224157607f821691505b602082108103612254576122536121fd565b5b50919050565b5f819050815f5260205f209050919050565b5f6020601f8301049050919050565b5f82821b905092915050565b5f600883026122b67fffffffffffffffffffffffffffffffffffffffffffffffffffffffffffffffff8261227b565b6122c0868361227b565b95508019841693508086168417925050509392505050565b5f819050919050565b5f6122fb6122f66122f184611abe565b6122d8565b611abe565b9050919050565b5f819050919050565b612314836122e1565b61232861232082612302565b848454612287565b825550505050565b5f90565b61233c612330565b61234781848461230b565b505050565b5b8181101561236a5761235f5f82612334565b60018101905061234d565b5050565b601f8211156123af576123808161225a565b6123898461226c565b81016020851015612398578190505b6123ac6123a48561226c565b83018261234c565b50505b505050565b5f82821c905092915050565b5f6123cf5f19846008026123b4565b1980831691505092915050565b5f6123e783836123c0565b9150826002028217905092915050565b61240082611a2e565b67ffffffffffffffff81111561241957612418611be4565b5b612423825461222a565b61242e82828561236e565b5f60209050601f83116001811461245f575f841561244d578287015190505b61245785826123dc565b8655506124be565b601f19841661246d8661225a565b5f5b828110156124945784890151825560018201915060208501945060208101905061246f565b868310156124b157848901516124ad601f8916826123c0565b8355505b6001600288020188555050505b505050505050565b5f6060820190506124d95f830186611b4c565b6124e66020830185611eff565b6124f36040830184611b4c565b949350505050565b5f81905092915050565b5f61250f82611a2e565b61251981856124fb565b9350612529818560208601611a48565b80840191505092915050565b5f6125408285612505565b915061254c8284612505565b91508190509392505050565b5f81519050919050565b5f82825260208201905092915050565b5f61257c82612558565b6125868185612562565b9350612596818560208601611a48565b61259f81611a56565b840191505092915050565b5f6080820190506125bd5f830187611b4c565b6125ca6020830186611b4c565b6125d76040830185611eff565b81810360608301526125e98184612572565b905095945050505050565b5f81519050612602816119a6565b92915050565b5f6020828403121561261d5761261c611973565b5b5f61262a848285016125f4565b91505092915050565b7f4e487b71000000000000000000000000000000000000000000000000000000005f52601260045260245ffdfea26469706673582212201ff337ad58c1d339cc008f9c397d60c64d619448c47283679ac4dace51a4a59b64736f6c634300081a0033",
			"opcodes": "PUSH1 0x80 PUSH1 0x40 MSTORE CALLVALUE DUP1 ISZERO PUSH2 0xF JUMPI PUSH0 DUP1 REVERT JUMPDEST POP PUSH1 0x40 MLOAD DUP1 PUSH1 0x40 ADD PUSH1 0x40 MSTORE DUP1 PUSH1 0xD DUP2 MSTORE PUSH1 0x20 ADD PUSH32 0x4361724C656173696E674E465400000000000000000000000000000000000000 DUP2 MSTORE POP PUSH1 0x40 MLOAD DUP1 PUSH1 0x40 ADD PUSH1 0x40 MSTORE DUP1 PUSH1 0x5 DUP2 MSTORE PUSH1 0x20 ADD PUSH32 0x434C4E4654000000000000000000000000000000000000000000000000000000 DUP2 MSTORE POP DUP2 PUSH0 SWAP1 DUP2 PUSH2 0x8A SWAP2 SWAP1 PUSH2 0x2DC JUMP JUMPDEST POP DUP1 PUSH1 0x1 SWAP1 DUP2 PUSH2 0x9A SWAP2 SWAP1 PUSH2 0x2DC JUMP JUMPDEST POP POP POP PUSH2 0x3AB JUMP JUMPDEST PUSH0 DUP2 MLOAD SWAP1 POP SWAP2 SWAP1 POP JUMP JUMPDEST PUSH32 0x4E487B7100000000000000000000000000000000000000000000000000000000 PUSH0 MSTORE PUSH1 0x41 PUSH1 0x4 MSTORE PUSH1 0x24 PUSH0 REVERT JUMPDEST PUSH32 0x4E487B7100000000000000000000000000000000000000000000000000000000 PUSH0 MSTORE PUSH1 0x22 PUSH1 0x4 MSTORE PUSH1 0x24 PUSH0 REVERT JUMPDEST PUSH0 PUSH1 0x2 DUP3 DIV SWAP1 POP PUSH1 0x1 DUP3 AND DUP1 PUSH2 0x11D JUMPI PUSH1 0x7F DUP3 AND SWAP2 POP JUMPDEST PUSH1 0x20 DUP3 LT DUP2 SUB PUSH2 0x130 JUMPI PUSH2 0x12F PUSH2 0xD9 JUMP JUMPDEST JUMPDEST POP SWAP2 SWAP1 POP JUMP JUMPDEST PUSH0 DUP2 SWAP1 POP DUP2 PUSH0 MSTORE PUSH1 0x20 PUSH0 KECCAK256 SWAP1 POP SWAP2 SWAP1 POP JUMP JUMPDEST PUSH0 PUSH1 0x20 PUSH1 0x1F DUP4 ADD DIV SWAP1 POP SWAP2 SWAP1 POP JUMP JUMPDEST PUSH0 DUP3 DUP3 SHL SWAP1 POP SWAP3 SWAP2 POP POP JUMP JUMPDEST PUSH0 PUSH1 0x8 DUP4 MUL PUSH2 0x192 PUSH32 0xFFFFFFFFFFFFFFFFFFFFFFFFFFFFFFFFFFFFFFFFFFFFFFFFFFFFFFFFFFFFFFFF DUP3 PUSH2 0x157 JUMP JUMPDEST PUSH2 0x19C DUP7 DUP4 PUSH2 0x157 JUMP JUMPDEST SWAP6 POP DUP1 NOT DUP5 AND SWAP4 POP DUP1 DUP7 AND DUP5 OR SWAP3 POP POP POP SWAP4 SWAP3 POP POP POP JUMP JUMPDEST PUSH0 DUP2 SWAP1 POP SWAP2 SWAP1 POP JUMP JUMPDEST PUSH0 DUP2 SWAP1 POP SWAP2 SWAP1 POP JUMP JUMPDEST PUSH0 PUSH2 0x1E0 PUSH2 0x1DB PUSH2 0x1D6 DUP5 PUSH2 0x1B4 JUMP JUMPDEST PUSH2 0x1BD JUMP JUMPDEST PUSH2 0x1B4 JUMP JUMPDEST SWAP1 POP SWAP2 SWAP1 POP JUMP JUMPDEST PUSH0 DUP2 SWAP1 POP SWAP2 SWAP1 POP JUMP JUMPDEST PUSH2 0x1F9 DUP4 PUSH2 0x1C6 JUMP JUMPDEST PUSH2 0x20D PUSH2 0x205 DUP3 PUSH2 0x1E7 JUMP JUMPDEST DUP5 DUP5 SLOAD PUSH2 0x163 JUMP JUMPDEST DUP3 SSTORE POP POP POP POP JUMP JUMPDEST PUSH0 SWAP1 JUMP JUMPDEST PUSH2 0x221 PUSH2 0x215 JUMP JUMPDEST PUSH2 0x22C DUP2 DUP5 DUP5 PUSH2 0x1F0 JUMP JUMPDEST POP POP POP JUMP JUMPDEST JUMPDEST DUP2 DUP2 LT ISZERO PUSH2 0x24F JUMPI PUSH2 0x244 PUSH0 DUP3 PUSH2 0x219 JUMP JUMPDEST PUSH1 0x1 DUP2 ADD SWAP1 POP PUSH2 0x232 JUMP JUMPDEST POP POP JUMP JUMPDEST PUSH1 0x1F DUP3 GT ISZERO PUSH2 0x294 JUMPI PUSH2 0x265 DUP2 PUSH2 0x136 JUMP JUMPDEST PUSH2 0x26E DUP5 PUSH2 0x148 JUMP JUMPDEST DUP2 ADD PUSH1 0x20 DUP6 LT ISZERO PUSH2 0x27D JUMPI DUP2 SWAP1 POP JUMPDEST PUSH2 0x291 PUSH2 0x289 DUP6 PUSH2 0x148 JUMP JUMPDEST DUP4 ADD DUP3 PUSH2 0x231 JUMP JUMPDEST POP POP JUMPDEST POP POP POP JUMP JUMPDEST PUSH0 DUP3 DUP3 SHR SWAP1 POP SWAP3 SWAP2 POP POP JUMP JUMPDEST PUSH0 PUSH2 0x2B4 PUSH0 NOT DUP5 PUSH1 0x8 MUL PUSH2 0x299 JUMP JUMPDEST NOT DUP1 DUP4 AND SWAP2 POP POP SWAP3 SWAP2 POP POP JUMP JUMPDEST PUSH0 PUSH2 0x2CC DUP4 DUP4 PUSH2 0x2A5 JUMP JUMPDEST SWAP2 POP DUP3 PUSH1 0x2 MUL DUP3 OR SWAP1 POP SWAP3 SWAP2 POP POP JUMP JUMPDEST PUSH2 0x2E5 DUP3 PUSH2 0xA2 JUMP JUMPDEST PUSH8 0xFFFFFFFFFFFFFFFF DUP2 GT ISZERO PUSH2 0x2FE JUMPI PUSH2 0x2FD PUSH2 0xAC JUMP JUMPDEST JUMPDEST PUSH2 0x308 DUP3 SLOAD PUSH2 0x106 JUMP JUMPDEST PUSH2 0x313 DUP3 DUP3 DUP6 PUSH2 0x253 JUMP JUMPDEST PUSH0 PUSH1 0x20 SWAP1 POP PUSH1 0x1F DUP4 GT PUSH1 0x1 DUP2 EQ PUSH2 0x344 JUMPI PUSH0 DUP5 ISZERO PUSH2 0x332 JUMPI DUP3 DUP8 ADD MLOAD SWAP1 POP JUMPDEST PUSH2 0x33C DUP6 DUP3 PUSH2 0x2C1 JUMP JUMPDEST DUP7 SSTORE POP PUSH2 0x3A3 JUMP JUMPDEST PUSH1 0x1F NOT DUP5 AND PUSH2 0x352 DUP7 PUSH2 0x136 JUMP JUMPDEST PUSH0 JUMPDEST DUP3 DUP2 LT ISZERO PUSH2 0x379 JUMPI DUP5 DUP10 ADD MLOAD DUP3 SSTORE PUSH1 0x1 DUP3 ADD SWAP2 POP PUSH1 0x20 DUP6 ADD SWAP5 POP PUSH1 0x20 DUP2 ADD SWAP1 POP PUSH2 0x354 JUMP JUMPDEST DUP7 DUP4 LT ISZERO PUSH2 0x396 JUMPI DUP5 DUP10 ADD MLOAD PUSH2 0x392 PUSH1 0x1F DUP10 AND DUP3 PUSH2 0x2A5 JUMP JUMPDEST DUP4 SSTORE POP JUMPDEST PUSH1 0x1 PUSH1 0x2 DUP9 MUL ADD DUP9 SSTORE POP POP POP JUMPDEST POP POP POP POP POP POP JUMP JUMPDEST PUSH2 0x2696 DUP1 PUSH2 0x3B8 PUSH0 CODECOPY PUSH0 RETURN INVALID PUSH1 0x80 PUSH1 0x40 MSTORE CALLVALUE DUP1 ISZERO PUSH2 0xF JUMPI PUSH0 DUP1 REVERT JUMPDEST POP PUSH1 0x4 CALLDATASIZE LT PUSH2 0x109 JUMPI PUSH0 CALLDATALOAD PUSH1 0xE0 SHR DUP1 PUSH4 0x5E5380CE GT PUSH2 0xA0 JUMPI DUP1 PUSH4 0xA22CB465 GT PUSH2 0x6F JUMPI DUP1 PUSH4 0xA22CB465 EQ PUSH2 0x2DE JUMPI DUP1 PUSH4 0xB88D4FDE EQ PUSH2 0x2FA JUMPI DUP1 PUSH4 0xC87B56DD EQ PUSH2 0x316 JUMPI DUP1 PUSH4 0xE985E9C5 EQ PUSH2 0x346 JUMPI DUP1 PUSH4 0xF7746E36 EQ PUSH2 0x376 JUMPI PUSH2 0x109 JUMP JUMPDEST DUP1 PUSH4 0x5E5380CE EQ PUSH2 0x22C JUMPI DUP1 PUSH4 0x6352211E EQ PUSH2 0x260 JUMPI DUP1 PUSH4 0x70A08231 EQ PUSH2 0x290 JUMPI DUP1 PUSH4 0x95D89B41 EQ PUSH2 0x2C0 JUMPI PUSH2 0x109 JUMP JUMPDEST DUP1 PUSH4 0x12376CA2 GT PUSH2 0xDC JUMPI DUP1 PUSH4 0x12376CA2 EQ PUSH2 0x1A7 JUMPI DUP1 PUSH4 0x23B872DD EQ PUSH2 0x1C3 JUMPI DUP1 PUSH4 0x2655BD73 EQ PUSH2 0x1DF JUMPI DUP1 PUSH4 0x42842E0E EQ PUSH2 0x210 JUMPI PUSH2 0x109 JUMP JUMPDEST DUP1 PUSH4 0x1FFC9A7 EQ PUSH2 0x10D JUMPI DUP1 PUSH4 0x6FDDE03 EQ PUSH2 0x13D JUMPI DUP1 PUSH4 0x81812FC EQ PUSH2 0x15B JUMPI DUP1 PUSH4 0x95EA7B3 EQ PUSH2 0x18B JUMPI JUMPDEST PUSH0 DUP1 REVERT JUMPDEST PUSH2 0x127 PUSH1 0x4 DUP1 CALLDATASIZE SUB DUP2 ADD SWAP1 PUSH2 0x122 SWAP2 SWAP1 PUSH2 0x19D0 JUMP JUMPDEST PUSH2 0x3A9 JUMP JUMPDEST PUSH1 0x40 MLOAD PUSH2 0x134 SWAP2 SWAP1 PUSH2 0x1A15 JUMP JUMPDEST PUSH1 0x40 MLOAD DUP1 SWAP2 SUB SWAP1 RETURN JUMPDEST PUSH2 0x145 PUSH2 0x48A JUMP JUMPDEST PUSH1 0x40 MLOAD PUSH2 0x152 SWAP2 SWAP1 PUSH2 0x1A9E JUMP JUMPDEST PUSH1 0x40 MLOAD DUP1 SWAP2 SUB SWAP1 RETURN JUMPDEST PUSH2 0x175 PUSH1 0x4 DUP1 CALLDATASIZE SUB DUP2 ADD SWAP1 PUSH2 0x170 SWAP2 SWAP1 PUSH2 0x1AF1 JUMP JUMPDEST PUSH2 0x519 JUMP JUMPDEST PUSH1 0x40 MLOAD PUSH2 0x182 SWAP2 SWAP1 PUSH2 0x1B5B JUMP JUMPDEST PUSH1 0x40 MLOAD DUP1 SWAP2 SUB SWAP1 RETURN JUMPDEST PUSH2 0x1A5 PUSH1 0x4 DUP1 CALLDATASIZE SUB DUP2 ADD SWAP1 PUSH2 0x1A0 SWAP2 SWAP1 PUSH2 0x1B9E JUMP JUMPDEST PUSH2 0x534 JUMP JUMPDEST STOP JUMPDEST PUSH2 0x1C1 PUSH1 0x4 DUP1 CALLDATASIZE SUB DUP2 ADD SWAP1 PUSH2 0x1BC SWAP2 SWAP1 PUSH2 0x1D75 JUMP JUMPDEST PUSH2 0x54A JUMP JUMPDEST STOP JUMPDEST PUSH2 0x1DD PUSH1 0x4 DUP1 CALLDATASIZE SUB DUP2 ADD SWAP1 PUSH2 0x1D8 SWAP2 SWAP1 PUSH2 0x1E71 JUMP JUMPDEST PUSH2 0x68A JUMP JUMPDEST STOP JUMPDEST PUSH2 0x1F9 PUSH1 0x4 DUP1 CALLDATASIZE SUB DUP2 ADD SWAP1 PUSH2 0x1F4 SWAP2 SWAP1 PUSH2 0x1EC1 JUMP JUMPDEST PUSH2 0x789 JUMP JUMPDEST PUSH1 0x40 MLOAD PUSH2 0x207 SWAP3 SWAP2 SWAP1 PUSH2 0x1F0E JUMP JUMPDEST PUSH1 0x40 MLOAD DUP1 SWAP2 SUB SWAP1 RETURN JUMPDEST PUSH2 0x22A PUSH1 0x4 DUP1 CALLDATASIZE SUB DUP2 ADD SWAP1 PUSH2 0x225 SWAP2 SWAP1 PUSH2 0x1E71 JUMP JUMPDEST PUSH2 0x7E2 JUMP JUMPDEST STOP JUMPDEST PUSH2 0x246 PUSH1 0x4 DUP1 CALLDATASIZE SUB DUP2 ADD SWAP1 PUSH2 0x241 SWAP2 SWAP1 PUSH2 0x1AF1 JUMP JUMPDEST PUSH2 0x801 JUMP JUMPDEST PUSH1 0x40 MLOAD PUSH2 0x257 SWAP6 SWAP5 SWAP4 SWAP3 SWAP2 SWAP1 PUSH2 0x1F44 JUMP JUMPDEST PUSH1 0x40 MLOAD DUP1 SWAP2 SUB SWAP1 RETURN JUMPDEST PUSH2 0x27A PUSH1 0x4 DUP1 CALLDATASIZE SUB DUP2 ADD SWAP1 PUSH2 0x275 SWAP2 SWAP1 PUSH2 0x1AF1 JUMP JUMPDEST PUSH2 0x83F JUMP JUMPDEST PUSH1 0x40 MLOAD PUSH2 0x287 SWAP2 SWAP1 PUSH2 0x1B5B JUMP JUMPDEST PUSH1 0x40 MLOAD DUP1 SWAP2 SUB SWAP1 RETURN JUMPDEST PUSH2 0x2AA PUSH1 0x4 DUP1 CALLDATASIZE SUB DUP2 ADD SWAP1 PUSH2 0x2A5 SWAP2 SWAP1 PUSH2 0x1F95 JUMP JUMPDEST PUSH2 0x850 JUMP JUMPDEST PUSH1 0x40 MLOAD PUSH2 0x2B7 SWAP2 SWAP1 PUSH2 0x1FC0 JUMP JUMPDEST PUSH1 0x40 MLOAD DUP1 SWAP2 SUB SWAP1 RETURN JUMPDEST PUSH2 0x2C8 PUSH2 0x906 JUMP JUMPDEST PUSH1 0x40 MLOAD PUSH2 0x2D5 SWAP2 SWAP1 PUSH2 0x1A9E JUMP JUMPDEST PUSH1 0x40 MLOAD DUP1 SWAP2 SUB SWAP1 RETURN JUMPDEST PUSH2 0x2F8 PUSH1 0x4 DUP1 CALLDATASIZE SUB DUP2 ADD SWAP1 PUSH2 0x2F3 SWAP2 SWAP1 PUSH2 0x2003 JUMP JUMPDEST PUSH2 0x996 JUMP JUMPDEST STOP JUMPDEST PUSH2 0x314 PUSH1 0x4 DUP1 CALLDATASIZE SUB DUP2 ADD SWAP1 PUSH2 0x30F SWAP2 SWAP1 PUSH2 0x20DF JUMP JUMPDEST PUSH2 0x9AC JUMP JUMPDEST STOP JUMPDEST PUSH2 0x330 PUSH1 0x4 DUP1 CALLDATASIZE SUB DUP2 ADD SWAP1 PUSH2 0x32B SWAP2 SWAP1 PUSH2 0x1AF1 JUMP JUMPDEST PUSH2 0x9D1 JUMP JUMPDEST PUSH1 0x40 MLOAD PUSH2 0x33D SWAP2 SWAP1 PUSH2 0x1A9E JUMP JUMPDEST PUSH1 0x40 MLOAD DUP1 SWAP2 SUB SWAP1 RETURN JUMPDEST PUSH2 0x360 PUSH1 0x4 DUP1 CALLDATASIZE SUB DUP2 ADD SWAP1 PUSH2 0x35B SWAP2 SWAP1 PUSH2 0x215F JUMP JUMPDEST PUSH2 0xA37 JUMP JUMPDEST PUSH1 0x40 MLOAD PUSH2 0x36D SWAP2 SWAP1 PUSH2 0x1A15 JUMP JUMPDEST PUSH1 0x40 MLOAD DUP1 SWAP2 SUB SWAP1 RETURN JUMPDEST PUSH2 0x390 PUSH1 0x4 DUP1 CALLDATASIZE SUB DUP2 ADD SWAP1 PUSH2 0x38B SWAP2 SWAP1 PUSH2 0x1AF1 JUMP JUMPDEST PUSH2 0xAC5 JUMP JUMPDEST PUSH1 0x40 MLOAD PUSH2 0x3A0 SWAP5 SWAP4 SWAP3 SWAP2 SWAP1 PUSH2 0x21AC JUMP JUMPDEST PUSH1 0x40 MLOAD DUP1 SWAP2 SUB SWAP1 RETURN JUMPDEST PUSH0 PUSH32 0x80AC58CD00000000000000000000000000000000000000000000000000000000 PUSH28 0xFFFFFFFFFFFFFFFFFFFFFFFFFFFFFFFFFFFFFFFFFFFFFFFFFFFFFFFF NOT AND DUP3 PUSH28 0xFFFFFFFFFFFFFFFFFFFFFFFFFFFFFFFFFFFFFFFFFFFFFFFFFFFFFFFF NOT AND EQ DUP1 PUSH2 0x473 JUMPI POP PUSH32 0x5B5E139F00000000000000000000000000000000000000000000000000000000 PUSH28 0xFFFFFFFFFFFFFFFFFFFFFFFFFFFFFFFFFFFFFFFFFFFFFFFFFFFFFFFF NOT AND DUP3 PUSH28 0xFFFFFFFFFFFFFFFFFFFFFFFFFFFFFFFFFFFFFFFFFFFFFFFFFFFFFFFF NOT AND EQ JUMPDEST DUP1 PUSH2 0x483 JUMPI POP PUSH2 0x482 DUP3 PUSH2 0xC0A JUMP JUMPDEST JUMPDEST SWAP1 POP SWAP2 SWAP1 POP JUMP JUMPDEST PUSH1 0x60 PUSH0 DUP1 SLOAD PUSH2 0x498 SWAP1 PUSH2 0x222A JUMP JUMPDEST DUP1 PUSH1 0x1F ADD PUSH1 0x20 DUP1 SWAP2 DIV MUL PUSH1 0x20 ADD PUSH1 0x40 MLOAD SWAP1 DUP2 ADD PUSH1 0x40 MSTORE DUP1 SWAP3 SWAP2 SWAP1 DUP2 DUP2 MSTORE PUSH1 0x20 ADD DUP3 DUP1 SLOAD PUSH2 0x4C4 SWAP1 PUSH2 0x222A JUMP JUMPDEST DUP1 ISZERO PUSH2 0x50F JUMPI DUP1 PUSH1 0x1F LT PUSH2 0x4E6 JUMPI PUSH2 0x100 DUP1 DUP4 SLOAD DIV MUL DUP4 MSTORE SWAP2 PUSH1 0x20 ADD SWAP2 PUSH2 0x50F JUMP JUMPDEST DUP3 ADD SWAP2 SWAP1 PUSH0 MSTORE PUSH1 0x20 PUSH0 KECCAK256 SWAP1 JUMPDEST DUP2 SLOAD DUP2 MSTORE SWAP1 PUSH1 0x1 ADD SWAP1 PUSH1 0x20 ADD DUP1 DUP4 GT PUSH2 0x4F2 JUMPI DUP3 SWAP1 SUB PUSH1 0x1F AND DUP3 ADD SWAP2 JUMPDEST POP POP POP POP POP SWAP1 POP SWAP1 JUMP JUMPDEST PUSH0 PUSH2 0x523 DUP3 PUSH2 0xC73 JUMP JUMPDEST POP PUSH2 0x52D DUP3 PUSH2 0xCF9 JUMP JUMPDEST SWAP1 POP SWAP2 SWAP1 POP JUMP JUMPDEST PUSH2 0x546 DUP3 DUP3 PUSH2 0x541 PUSH2 0xD32 JUMP JUMPDEST PUSH2 0xD39 JUMP JUMPDEST POP POP JUMP JUMPDEST PUSH0 PUSH2 0x555 PUSH1 0x6 PUSH2 0xD4B JUMP JUMPDEST SWAP1 POP PUSH1 0x40 MLOAD DUP1 PUSH1 0x80 ADD PUSH1 0x40 MSTORE DUP1 DUP11 DUP2 MSTORE PUSH1 0x20 ADD DUP10 DUP2 MSTORE PUSH1 0x20 ADD DUP9 PUSH2 0xFFFF AND DUP2 MSTORE PUSH1 0x20 ADD DUP8 DUP2 MSTORE POP PUSH1 0x7 PUSH0 DUP4 DUP2 MSTORE PUSH1 0x20 ADD SWAP1 DUP2 MSTORE PUSH1 0x20 ADD PUSH0 KECCAK256 PUSH0 DUP3 ADD MLOAD DUP2 PUSH0 ADD SWAP1 DUP2 PUSH2 0x5A0 SWAP2 SWAP1 PUSH2 0x23F7 JUMP JUMPDEST POP PUSH1 0x20 DUP3 ADD MLOAD DUP2 PUSH1 0x1 ADD SWAP1 DUP2 PUSH2 0x5B6 SWAP2 SWAP1 PUSH2 0x23F7 JUMP JUMPDEST POP PUSH1 0x40 DUP3 ADD MLOAD DUP2 PUSH1 0x2 ADD PUSH0 PUSH2 0x100 EXP DUP2 SLOAD DUP2 PUSH2 0xFFFF MUL NOT AND SWAP1 DUP4 PUSH2 0xFFFF AND MUL OR SWAP1 SSTORE POP PUSH1 0x60 DUP3 ADD MLOAD DUP2 PUSH1 0x3 ADD SSTORE SWAP1 POP POP PUSH1 0x40 MLOAD DUP1 PUSH1 0xA0 ADD PUSH1 0x40 MSTORE DUP1 DUP8 DUP2 MSTORE PUSH1 0x20 ADD DUP7 DUP2 MSTORE PUSH1 0x20 ADD DUP6 PUSH1 0xFF AND DUP2 MSTORE PUSH1 0x20 ADD DUP5 DUP2 MSTORE PUSH1 0x20 ADD DUP4 DUP2 MSTORE POP PUSH1 0x8 PUSH0 DUP4 DUP2 MSTORE PUSH1 0x20 ADD SWAP1 DUP2 MSTORE PUSH1 0x20 ADD PUSH0 KECCAK256 PUSH0 DUP3 ADD MLOAD DUP2 PUSH0 ADD SSTORE PUSH1 0x20 DUP3 ADD MLOAD DUP2 PUSH1 0x1 ADD SSTORE PUSH1 0x40 DUP3 ADD MLOAD DUP2 PUSH1 0x2 ADD PUSH0 PUSH2 0x100 EXP DUP2 SLOAD DUP2 PUSH1 0xFF MUL NOT AND SWAP1 DUP4 PUSH1 0xFF AND MUL OR SWAP1 SSTORE POP PUSH1 0x60 DUP3 ADD MLOAD DUP2 PUSH1 0x3 ADD SSTORE PUSH1 0x80 DUP3 ADD MLOAD DUP2 PUSH1 0x4 ADD SSTORE SWAP1 POP POP PUSH2 0x674 DUP11 DUP3 PUSH2 0xD57 JUMP JUMPDEST PUSH2 0x67E PUSH1 0x6 PUSH2 0xD74 JUMP JUMPDEST POP POP POP POP POP POP POP POP POP POP JUMP JUMPDEST PUSH0 PUSH20 0xFFFFFFFFFFFFFFFFFFFFFFFFFFFFFFFFFFFFFFFF AND DUP3 PUSH20 0xFFFFFFFFFFFFFFFFFFFFFFFFFFFFFFFFFFFFFFFF AND SUB PUSH2 0x6FA JUMPI PUSH0 PUSH1 0x40 MLOAD PUSH32 0x64A0AE9200000000000000000000000000000000000000000000000000000000 DUP2 MSTORE PUSH1 0x4 ADD PUSH2 0x6F1 SWAP2 SWAP1 PUSH2 0x1B5B JUMP JUMPDEST PUSH1 0x40 MLOAD DUP1 SWAP2 SUB SWAP1 REVERT JUMPDEST PUSH0 PUSH2 0x70D DUP4 DUP4 PUSH2 0x708 PUSH2 0xD32 JUMP JUMPDEST PUSH2 0xD88 JUMP JUMPDEST SWAP1 POP DUP4 PUSH20 0xFFFFFFFFFFFFFFFFFFFFFFFFFFFFFFFFFFFFFFFF AND DUP2 PUSH20 0xFFFFFFFFFFFFFFFFFFFFFFFFFFFFFFFFFFFFFFFF AND EQ PUSH2 0x783 JUMPI DUP4 DUP3 DUP3 PUSH1 0x40 MLOAD PUSH32 0x64283D7B00000000000000000000000000000000000000000000000000000000 DUP2 MSTORE PUSH1 0x4 ADD PUSH2 0x77A SWAP4 SWAP3 SWAP2 SWAP1 PUSH2 0x24C6 JUMP JUMPDEST PUSH1 0x40 MLOAD DUP1 SWAP2 SUB SWAP1 REVERT JUMPDEST POP POP POP POP JUMP JUMPDEST PUSH1 0x9 PUSH1 0x20 MSTORE DUP2 PUSH0 MSTORE PUSH1 0x40 PUSH0 KECCAK256 DUP2 DUP2 SLOAD DUP2 LT PUSH2 0x7A2 JUMPI PUSH0 DUP1 REVERT JUMPDEST SWAP1 PUSH0 MSTORE PUSH1 0x20 PUSH0 KECCAK256 SWAP1 PUSH1 0x2 MUL ADD PUSH0 SWAP2 POP SWAP2 POP POP DUP1 PUSH0 ADD PUSH0 SWAP1 SLOAD SWAP1 PUSH2 0x100 EXP SWAP1 DIV PUSH20 0xFFFFFFFFFFFFFFFFFFFFFFFFFFFFFFFFFFFFFFFF AND SWAP1 DUP1 PUSH1 0x1 ADD SLOAD SWAP1 POP DUP3 JUMP JUMPDEST PUSH2 0x7FC DUP4 DUP4 DUP4 PUSH1 0x40 MLOAD DUP1 PUSH1 0x20 ADD PUSH1 0x40 MSTORE DUP1 PUSH0 DUP2 MSTORE POP PUSH2 0x9AC JUMP JUMPDEST POP POP POP JUMP JUMPDEST PUSH1 0x8 PUSH1 0x20 MSTORE DUP1 PUSH0 MSTORE PUSH1 0x40 PUSH0 KECCAK256 PUSH0 SWAP2 POP SWAP1 POP DUP1 PUSH0 ADD SLOAD SWAP1 DUP1 PUSH1 0x1 ADD SLOAD SWAP1 DUP1 PUSH1 0x2 ADD PUSH0 SWAP1 SLOAD SWAP1 PUSH2 0x100 EXP SWAP1 DIV PUSH1 0xFF AND SWAP1 DUP1 PUSH1 0x3 ADD SLOAD SWAP1 DUP1 PUSH1 0x4 ADD SLOAD SWAP1 POP DUP6 JUMP JUMPDEST PUSH0 PUSH2 0x849 DUP3 PUSH2 0xC73 JUMP JUMPDEST SWAP1 POP SWAP2 SWAP1 POP JUMP JUMPDEST PUSH0 DUP1 PUSH20 0xFFFFFFFFFFFFFFFFFFFFFFFFFFFFFFFFFFFFFFFF AND DUP3 PUSH20 0xFFFFFFFFFFFFFFFFFFFFFFFFFFFFFFFFFFFFFFFF AND SUB PUSH2 0x8C1 JUMPI PUSH0 PUSH1 0x40 MLOAD PUSH32 0x89C62B6400000000000000000000000000000000000000000000000000000000 DUP2 MSTORE PUSH1 0x4 ADD PUSH2 0x8B8 SWAP2 SWAP1 PUSH2 0x1B5B JUMP JUMPDEST PUSH1 0x40 MLOAD DUP1 SWAP2 SUB SWAP1 REVERT JUMPDEST PUSH1 0x3 PUSH0 DUP4 PUSH20 0xFFFFFFFFFFFFFFFFFFFFFFFFFFFFFFFFFFFFFFFF AND PUSH20 0xFFFFFFFFFFFFFFFFFFFFFFFFFFFFFFFFFFFFFFFF AND DUP2 MSTORE PUSH1 0x20 ADD SWAP1 DUP2 MSTORE PUSH1 0x20 ADD PUSH0 KECCAK256 SLOAD SWAP1 POP SWAP2 SWAP1 POP JUMP JUMPDEST PUSH1 0x60 PUSH1 0x1 DUP1 SLOAD PUSH2 0x915 SWAP1 PUSH2 0x222A JUMP JUMPDEST DUP1 PUSH1 0x1F ADD PUSH1 0x20 DUP1 SWAP2 DIV MUL PUSH1 0x20 ADD PUSH1 0x40 MLOAD SWAP1 DUP2 ADD PUSH1 0x40 MSTORE DUP1 SWAP3 SWAP2 SWAP1 DUP2 DUP2 MSTORE PUSH1 0x20 ADD DUP3 DUP1 SLOAD PUSH2 0x941 SWAP1 PUSH2 0x222A JUMP JUMPDEST DUP1 ISZERO PUSH2 0x98C JUMPI DUP1 PUSH1 0x1F LT PUSH2 0x963 JUMPI PUSH2 0x100 DUP1 DUP4 SLOAD DIV MUL DUP4 MSTORE SWAP2 PUSH1 0x20 ADD SWAP2 PUSH2 0x98C JUMP JUMPDEST DUP3 ADD SWAP2 SWAP1 PUSH0 MSTORE PUSH1 0x20 PUSH0 KECCAK256 SWAP1 JUMPDEST DUP2 SLOAD DUP2 MSTORE SWAP1 PUSH1 0x1 ADD SWAP1 PUSH1 0x20 ADD DUP1 DUP4 GT PUSH2 0x96F JUMPI DUP3 SWAP1 SUB PUSH1 0x1F AND DUP3 ADD SWAP2 JUMPDEST POP POP POP POP POP SWAP1 POP SWAP1 JUMP JUMPDEST PUSH2 0x9A8 PUSH2 0x9A1 PUSH2 0xD32 JUMP JUMPDEST DUP4 DUP4 PUSH2 0xF93 JUMP JUMPDEST POP POP JUMP JUMPDEST PUSH2 0x9B7 DUP5 DUP5 DUP5 PUSH2 0x68A JUMP JUMPDEST PUSH2 0x9CB PUSH2 0x9C2 PUSH2 0xD32 JUMP JUMPDEST DUP6 DUP6 DUP6 DUP6 PUSH2 0x10FC JUMP JUMPDEST POP POP POP POP JUMP JUMPDEST PUSH1 0x60 PUSH2 0x9DC DUP3 PUSH2 0xC73 JUMP JUMPDEST POP PUSH0 PUSH2 0x9E6 PUSH2 0x12A8 JUMP JUMPDEST SWAP1 POP PUSH0 DUP2 MLOAD GT PUSH2 0xA04 JUMPI PUSH1 0x40 MLOAD DUP1 PUSH1 0x20 ADD PUSH1 0x40 MSTORE DUP1 PUSH0 DUP2 MSTORE POP PUSH2 0xA2F JUMP JUMPDEST DUP1 PUSH2 0xA0E DUP5 PUSH2 0x12BE JUMP JUMPDEST PUSH1 0x40 MLOAD PUSH1 0x20 ADD PUSH2 0xA1F SWAP3 SWAP2 SWAP1 PUSH2 0x2535 JUMP JUMPDEST PUSH1 0x40 MLOAD PUSH1 0x20 DUP2 DUP4 SUB SUB DUP2 MSTORE SWAP1 PUSH1 0x40 MSTORE JUMPDEST SWAP2 POP POP SWAP2 SWAP1 POP JUMP JUMPDEST PUSH0 PUSH1 0x5 PUSH0 DUP5 PUSH20 0xFFFFFFFFFFFFFFFFFFFFFFFFFFFFFFFFFFFFFFFF AND PUSH20 0xFFFFFFFFFFFFFFFFFFFFFFFFFFFFFFFFFFFFFFFF AND DUP2 MSTORE PUSH1 0x20 ADD SWAP1 DUP2 MSTORE PUSH1 0x20 ADD PUSH0 KECCAK256 PUSH0 DUP4 PUSH20 0xFFFFFFFFFFFFFFFFFFFFFFFFFFFFFFFFFFFFFFFF AND PUSH20 0xFFFFFFFFFFFFFFFFFFFFFFFFFFFFFFFFFFFFFFFF AND DUP2 MSTORE PUSH1 0x20 ADD SWAP1 DUP2 MSTORE PUSH1 0x20 ADD PUSH0 KECCAK256 PUSH0 SWAP1 SLOAD SWAP1 PUSH2 0x100 EXP SWAP1 DIV PUSH1 0xFF AND SWAP1 POP SWAP3 SWAP2 POP POP JUMP JUMPDEST PUSH1 0x7 PUSH1 0x20 MSTORE DUP1 PUSH0 MSTORE PUSH1 0x40 PUSH0 KECCAK256 PUSH0 SWAP2 POP SWAP1 POP DUP1 PUSH0 ADD DUP1 SLOAD PUSH2 0xAE4 SWAP1 PUSH2 0x222A JUMP JUMPDEST DUP1 PUSH1 0x1F ADD PUSH1 0x20 DUP1 SWAP2 DIV MUL PUSH1 0x20 ADD PUSH1 0x40 MLOAD SWAP1 DUP2 ADD PUSH1 0x40 MSTORE DUP1 SWAP3 SWAP2 SWAP1 DUP2 DUP2 MSTORE PUSH1 0x20 ADD DUP3 DUP1 SLOAD PUSH2 0xB10 SWAP1 PUSH2 0x222A JUMP JUMPDEST DUP1 ISZERO PUSH2 0xB5B JUMPI DUP1 PUSH1 0x1F LT PUSH2 0xB32 JUMPI PUSH2 0x100 DUP1 DUP4 SLOAD DIV MUL DUP4 MSTORE SWAP2 PUSH1 0x20 ADD SWAP2 PUSH2 0xB5B JUMP JUMPDEST DUP3 ADD SWAP2 SWAP1 PUSH0 MSTORE PUSH1 0x20 PUSH0 KECCAK256 SWAP1 JUMPDEST DUP2 SLOAD DUP2 MSTORE SWAP1 PUSH1 0x1 ADD SWAP1 PUSH1 0x20 ADD DUP1 DUP4 GT PUSH2 0xB3E JUMPI DUP3 SWAP1 SUB PUSH1 0x1F AND DUP3 ADD SWAP2 JUMPDEST POP POP POP POP POP SWAP1 DUP1 PUSH1 0x1 ADD DUP1 SLOAD PUSH2 0xB70 SWAP1 PUSH2 0x222A JUMP JUMPDEST DUP1 PUSH1 0x1F ADD PUSH1 0x20 DUP1 SWAP2 DIV MUL PUSH1 0x20 ADD PUSH1 0x40 MLOAD SWAP1 DUP2 ADD PUSH1 0x40 MSTORE DUP1 SWAP3 SWAP2 SWAP1 DUP2 DUP2 MSTORE PUSH1 0x20 ADD DUP3 DUP1 SLOAD PUSH2 0xB9C SWAP1 PUSH2 0x222A JUMP JUMPDEST DUP1 ISZERO PUSH2 0xBE7 JUMPI DUP1 PUSH1 0x1F LT PUSH2 0xBBE JUMPI PUSH2 0x100 DUP1 DUP4 SLOAD DIV MUL DUP4 MSTORE SWAP2 PUSH1 0x20 ADD SWAP2 PUSH2 0xBE7 JUMP JUMPDEST DUP3 ADD SWAP2 SWAP1 PUSH0 MSTORE PUSH1 0x20 PUSH0 KECCAK256 SWAP1 JUMPDEST DUP2 SLOAD DUP2 MSTORE SWAP1 PUSH1 0x1 ADD SWAP1 PUSH1 0x20 ADD DUP1 DUP4 GT PUSH2 0xBCA JUMPI DUP3 SWAP1 SUB PUSH1 0x1F AND DUP3 ADD SWAP2 JUMPDEST POP POP POP POP POP SWAP1 DUP1 PUSH1 0x2 ADD PUSH0 SWAP1 SLOAD SWAP1 PUSH2 0x100 EXP SWAP1 DIV PUSH2 0xFFFF AND SWAP1 DUP1 PUSH1 0x3 ADD SLOAD SWAP1 POP DUP5 JUMP JUMPDEST PUSH0 PUSH32 0x1FFC9A700000000000000000000000000000000000000000000000000000000 PUSH28 0xFFFFFFFFFFFFFFFFFFFFFFFFFFFFFFFFFFFFFFFFFFFFFFFFFFFFFFFF NOT AND DUP3 PUSH28 0xFFFFFFFFFFFFFFFFFFFFFFFFFFFFFFFFFFFFFFFFFFFFFFFFFFFFFFFF NOT AND EQ SWAP1 POP SWAP2 SWAP1 POP JUMP JUMPDEST PUSH0 DUP1 PUSH2 0xC7E DUP4 PUSH2 0x1388 JUMP JUMPDEST SWAP1 POP PUSH0 PUSH20 0xFFFFFFFFFFFFFFFFFFFFFFFFFFFFFFFFFFFFFFFF AND DUP2 PUSH20 0xFFFFFFFFFFFFFFFFFFFFFFFFFFFFFFFFFFFFFFFF AND SUB PUSH2 0xCF0 JUMPI DUP3 PUSH1 0x40 MLOAD PUSH32 0x7E27328900000000000000000000000000000000000000000000000000000000 DUP2 MSTORE PUSH1 0x4 ADD PUSH2 0xCE7 SWAP2 SWAP1 PUSH2 0x1FC0 JUMP JUMPDEST PUSH1 0x40 MLOAD DUP1 SWAP2 SUB SWAP1 REVERT JUMPDEST DUP1 SWAP2 POP POP SWAP2 SWAP1 POP JUMP JUMPDEST PUSH0 PUSH1 0x4 PUSH0 DUP4 DUP2 MSTORE PUSH1 0x20 ADD SWAP1 DUP2 MSTORE PUSH1 0x20 ADD PUSH0 KECCAK256 PUSH0 SWAP1 SLOAD SWAP1 PUSH2 0x100 EXP SWAP1 DIV PUSH20 0xFFFFFFFFFFFFFFFFFFFFFFFFFFFFFFFFFFFFFFFF AND SWAP1 POP SWAP2 SWAP1 POP JUMP JUMPDEST PUSH0 CALLER SWAP1 POP SWAP1 JUMP JUMPDEST PUSH2 0xD46 DUP4 DUP4 DUP4 PUSH1 0x1 PUSH2 0x13C1 JUMP JUMPDEST POP POP POP JUMP JUMPDEST PUSH0 DUP2 PUSH0 ADD SLOAD SWAP1 POP SWAP2 SWAP1 POP JUMP JUMPDEST PUSH2 0xD70 DUP3 DUP3 PUSH1 0x40 MLOAD DUP1 PUSH1 0x20 ADD PUSH1 0x40 MSTORE DUP1 PUSH0 DUP2 MSTORE POP PUSH2 0x1580 JUMP JUMPDEST POP POP JUMP JUMPDEST PUSH1 0x1 DUP2 PUSH0 ADD PUSH0 DUP3 DUP3 SLOAD ADD SWAP3 POP POP DUP2 SWAP1 SSTORE POP POP JUMP JUMPDEST PUSH0 DUP1 PUSH2 0xD93 DUP5 PUSH2 0x1388 JUMP JUMPDEST SWAP1 POP PUSH0 PUSH20 0xFFFFFFFFFFFFFFFFFFFFFFFFFFFFFFFFFFFFFFFF AND DUP4 PUSH20 0xFFFFFFFFFFFFFFFFFFFFFFFFFFFFFFFFFFFFFFFF AND EQ PUSH2 0xDD4 JUMPI PUSH2 0xDD3 DUP2 DUP5 DUP7 PUSH2 0x15A3 JUMP JUMPDEST JUMPDEST PUSH0 PUSH20 0xFFFFFFFFFFFFFFFFFFFFFFFFFFFFFFFFFFFFFFFF AND DUP2 PUSH20 0xFFFFFFFFFFFFFFFFFFFFFFFFFFFFFFFFFFFFFFFF AND EQ PUSH2 0xE5F JUMPI PUSH2 0xE13 PUSH0 DUP6 PUSH0 DUP1 PUSH2 0x13C1 JUMP JUMPDEST PUSH1 0x1 PUSH1 0x3 PUSH0 DUP4 PUSH20 0xFFFFFFFFFFFFFFFFFFFFFFFFFFFFFFFFFFFFFFFF AND PUSH20 0xFFFFFFFFFFFFFFFFFFFFFFFFFFFFFFFFFFFFFFFF AND DUP2 MSTORE PUSH1 0x20 ADD SWAP1 DUP2 MSTORE PUSH1 0x20 ADD PUSH0 KECCAK256 PUSH0 DUP3 DUP3 SLOAD SUB SWAP3 POP POP DUP2 SWAP1 SSTORE POP JUMPDEST PUSH0 PUSH20 0xFFFFFFFFFFFFFFFFFFFFFFFFFFFFFFFFFFFFFFFF AND DUP6 PUSH20 0xFFFFFFFFFFFFFFFFFFFFFFFFFFFFFFFFFFFFFFFF AND EQ PUSH2 0xEDE JUMPI PUSH1 0x1 PUSH1 0x3 PUSH0 DUP8 PUSH20 0xFFFFFFFFFFFFFFFFFFFFFFFFFFFFFFFFFFFFFFFF AND PUSH20 0xFFFFFFFFFFFFFFFFFFFFFFFFFFFFFFFFFFFFFFFF AND DUP2 MSTORE PUSH1 0x20 ADD SWAP1 DUP2 MSTORE PUSH1 0x20 ADD PUSH0 KECCAK256 PUSH0 DUP3 DUP3 SLOAD ADD SWAP3 POP POP DUP2 SWAP1 SSTORE POP JUMPDEST DUP5 PUSH1 0x2 PUSH0 DUP7 DUP2 MSTORE PUSH1 0x20 ADD SWAP1 DUP2 MSTORE PUSH1 0x20 ADD PUSH0 KECCAK256 PUSH0 PUSH2 0x100 EXP DUP2 SLOAD DUP2 PUSH20 0xFFFFFFFFFFFFFFFFFFFFFFFFFFFFFFFFFFFFFFFF MUL NOT AND SWAP1 DUP4 PUSH20 0xFFFFFFFFFFFFFFFFFFFFFFFFFFFFFFFFFFFFFFFF AND MUL OR SWAP1 SSTORE POP DUP4 DUP6 PUSH20 0xFFFFFFFFFFFFFFFFFFFFFFFFFFFFFFFFFFFFFFFF AND DUP3 PUSH20 0xFFFFFFFFFFFFFFFFFFFFFFFFFFFFFFFFFFFFFFFF AND PUSH32 0xDDF252AD1BE2C89B69C2B068FC378DAA952BA7F163C4A11628F55A4DF523B3EF PUSH1 0x40 MLOAD PUSH1 0x40 MLOAD DUP1 SWAP2 SUB SWAP1 LOG4 DUP1 SWAP2 POP POP SWAP4 SWAP3 POP POP POP JUMP JUMPDEST PUSH0 PUSH20 0xFFFFFFFFFFFFFFFFFFFFFFFFFFFFFFFFFFFFFFFF AND DUP3 PUSH20 0xFFFFFFFFFFFFFFFFFFFFFFFFFFFFFFFFFFFFFFFF AND SUB PUSH2 0x1003 JUMPI DUP2 PUSH1 0x40 MLOAD PUSH32 0x5B08BA1800000000000000000000000000000000000000000000000000000000 DUP2 MSTORE PUSH1 0x4 ADD PUSH2 0xFFA SWAP2 SWAP1 PUSH2 0x1B5B JUMP JUMPDEST PUSH1 0x40 MLOAD DUP1 SWAP2 SUB SWAP1 REVERT JUMPDEST DUP1 PUSH1 0x5 PUSH0 DUP6 PUSH20 0xFFFFFFFFFFFFFFFFFFFFFFFFFFFFFFFFFFFFFFFF AND PUSH20 0xFFFFFFFFFFFFFFFFFFFFFFFFFFFFFFFFFFFFFFFF AND DUP2 MSTORE PUSH1 0x20 ADD SWAP1 DUP2 MSTORE PUSH1 0x20 ADD PUSH0 KECCAK256 PUSH0 DUP5 PUSH20 0xFFFFFFFFFFFFFFFFFFFFFFFFFFFFFFFFFFFFFFFF AND PUSH20 0xFFFFFFFFFFFFFFFFFFFFFFFFFFFFFFFFFFFFFFFF AND DUP2 MSTORE PUSH1 0x20 ADD SWAP1 DUP2 MSTORE PUSH1 0x20 ADD PUSH0 KECCAK256 PUSH0 PUSH2 0x100 EXP DUP2 SLOAD DUP2 PUSH1 0xFF MUL NOT AND SWAP1 DUP4 ISZERO ISZERO MUL OR SWAP1 SSTORE POP DUP2 PUSH20 0xFFFFFFFFFFFFFFFFFFFFFFFFFFFFFFFFFFFFFFFF AND DUP4 PUSH20 0xFFFFFFFFFFFFFFFFFFFFFFFFFFFFFFFFFFFFFFFF AND PUSH32 0x17307EAB39AB6107E8899845AD3D59BD9653F200F220920489CA2B5937696C31 DUP4 PUSH1 0x40 MLOAD PUSH2 0x10EF SWAP2 SWAP1 PUSH2 0x1A15 JUMP JUMPDEST PUSH1 0x40 MLOAD DUP1 SWAP2 SUB SWAP1 LOG3 POP POP POP JUMP JUMPDEST PUSH0 DUP4 PUSH20 0xFFFFFFFFFFFFFFFFFFFFFFFFFFFFFFFFFFFFFFFF AND EXTCODESIZE GT ISZERO PUSH2 0x12A1 JUMPI DUP3 PUSH20 0xFFFFFFFFFFFFFFFFFFFFFFFFFFFFFFFFFFFFFFFF AND PUSH4 0x150B7A02 DUP7 DUP7 DUP6 DUP6 PUSH1 0x40 MLOAD DUP6 PUSH4 0xFFFFFFFF AND PUSH1 0xE0 SHL DUP2 MSTORE PUSH1 0x4 ADD PUSH2 0x115A SWAP5 SWAP4 SWAP3 SWAP2 SWAP1 PUSH2 0x25AA JUMP JUMPDEST PUSH1 0x20 PUSH1 0x40 MLOAD DUP1 DUP4 SUB DUP2 PUSH0 DUP8 GAS CALL SWAP3 POP POP POP DUP1 ISZERO PUSH2 0x1195 JUMPI POP PUSH1 0x40 MLOAD RETURNDATASIZE PUSH1 0x1F NOT PUSH1 0x1F DUP3 ADD AND DUP3 ADD DUP1 PUSH1 0x40 MSTORE POP DUP2 ADD SWAP1 PUSH2 0x1192 SWAP2 SWAP1 PUSH2 0x2608 JUMP JUMPDEST PUSH1 0x1 JUMPDEST PUSH2 0x1216 JUMPI RETURNDATASIZE DUP1 PUSH0 DUP2 EQ PUSH2 0x11C3 JUMPI PUSH1 0x40 MLOAD SWAP2 POP PUSH1 0x1F NOT PUSH1 0x3F RETURNDATASIZE ADD AND DUP3 ADD PUSH1 0x40 MSTORE RETURNDATASIZE DUP3 MSTORE RETURNDATASIZE PUSH0 PUSH1 0x20 DUP5 ADD RETURNDATACOPY PUSH2 0x11C8 JUMP JUMPDEST PUSH1 0x60 SWAP2 POP JUMPDEST POP PUSH0 DUP2 MLOAD SUB PUSH2 0x120E JUMPI DUP4 PUSH1 0x40 MLOAD PUSH32 0x64A0AE9200000000000000000000000000000000000000000000000000000000 DUP2 MSTORE PUSH1 0x4 ADD PUSH2 0x1205 SWAP2 SWAP1 PUSH2 0x1B5B JUMP JUMPDEST PUSH1 0x40 MLOAD DUP1 SWAP2 SUB SWAP1 REVERT JUMPDEST DUP1 MLOAD DUP2 PUSH1 0x20 ADD REVERT JUMPDEST PUSH4 0x150B7A02 PUSH1 0xE0 SHL PUSH28 0xFFFFFFFFFFFFFFFFFFFFFFFFFFFFFFFFFFFFFFFFFFFFFFFFFFFFFFFF NOT AND DUP2 PUSH28 0xFFFFFFFFFFFFFFFFFFFFFFFFFFFFFFFFFFFFFFFFFFFFFFFFFFFFFFFF NOT AND EQ PUSH2 0x129F JUMPI DUP4 PUSH1 0x40 MLOAD PUSH32 0x64A0AE9200000000000000000000000000000000000000000000000000000000 DUP2 MSTORE PUSH1 0x4 ADD PUSH2 0x1296 SWAP2 SWAP1 PUSH2 0x1B5B JUMP JUMPDEST PUSH1 0x40 MLOAD DUP1 SWAP2 SUB SWAP1 REVERT JUMPDEST POP JUMPDEST POP POP POP POP POP JUMP JUMPDEST PUSH1 0x60 PUSH1 0x40 MLOAD DUP1 PUSH1 0x20 ADD PUSH1 0x40 MSTORE DUP1 PUSH0 DUP2 MSTORE POP SWAP1 POP SWAP1 JUMP JUMPDEST PUSH1 0x60 PUSH0 PUSH1 0x1 PUSH2 0x12CC DUP5 PUSH2 0x1666 JUMP JUMPDEST ADD SWAP1 POP PUSH0 DUP2 PUSH8 0xFFFFFFFFFFFFFFFF DUP2 GT ISZERO PUSH2 0x12EA JUMPI PUSH2 0x12E9 PUSH2 0x1BE4 JUMP JUMPDEST JUMPDEST PUSH1 0x40 MLOAD SWAP1 DUP1 DUP3 MSTORE DUP1 PUSH1 0x1F ADD PUSH1 0x1F NOT AND PUSH1 0x20 ADD DUP3 ADD PUSH1 0x40 MSTORE DUP1 ISZERO PUSH2 0x131C JUMPI DUP2 PUSH1 0x20 ADD PUSH1 0x1 DUP3 MUL DUP1 CALLDATASIZE DUP4 CALLDATACOPY DUP1 DUP3 ADD SWAP2 POP POP SWAP1 POP JUMPDEST POP SWAP1 POP PUSH0 DUP3 PUSH1 0x20 ADD DUP3 ADD SWAP1 POP JUMPDEST PUSH1 0x1 ISZERO PUSH2 0x137D JUMPI DUP1 DUP1 PUSH1 0x1 SWAP1 SUB SWAP2 POP POP PUSH32 0x3031323334353637383961626364656600000000000000000000000000000000 PUSH1 0xA DUP7 MOD BYTE DUP2 MSTORE8 PUSH1 0xA DUP6 DUP2 PUSH2 0x1372 JUMPI PUSH2 0x1371 PUSH2 0x2633 JUMP JUMPDEST JUMPDEST DIV SWAP5 POP PUSH0 DUP6 SUB PUSH2 0x1329 JUMPI JUMPDEST DUP2 SWAP4 POP POP POP POP SWAP2 SWAP1 POP JUMP JUMPDEST PUSH0 PUSH1 0x2 PUSH0 DUP4 DUP2 MSTORE PUSH1 0x20 ADD SWAP1 DUP2 MSTORE PUSH1 0x20 ADD PUSH0 KECCAK256 PUSH0 SWAP1 SLOAD SWAP1 PUSH2 0x100 EXP SWAP1 DIV PUSH20 0xFFFFFFFFFFFFFFFFFFFFFFFFFFFFFFFFFFFFFFFF AND SWAP1 POP SWAP2 SWAP1 POP JUMP JUMPDEST DUP1 DUP1 PUSH2 0x13F9 JUMPI POP PUSH0 PUSH20 0xFFFFFFFFFFFFFFFFFFFFFFFFFFFFFFFFFFFFFFFF AND DUP3 PUSH20 0xFFFFFFFFFFFFFFFFFFFFFFFFFFFFFFFFFFFFFFFF AND EQ ISZERO JUMPDEST ISZERO PUSH2 0x152B JUMPI PUSH0 PUSH2 0x1408 DUP5 PUSH2 0xC73 JUMP JUMPDEST SWAP1 POP PUSH0 PUSH20 0xFFFFFFFFFFFFFFFFFFFFFFFFFFFFFFFFFFFFFFFF AND DUP4 PUSH20 0xFFFFFFFFFFFFFFFFFFFFFFFFFFFFFFFFFFFFFFFF AND EQ ISZERO DUP1 ISZERO PUSH2 0x1472 JUMPI POP DUP3 PUSH20 0xFFFFFFFFFFFFFFFFFFFFFFFFFFFFFFFFFFFFFFFF AND DUP2 PUSH20 0xFFFFFFFFFFFFFFFFFFFFFFFFFFFFFFFFFFFFFFFF AND EQ ISZERO JUMPDEST DUP1 ISZERO PUSH2 0x1485 JUMPI POP PUSH2 0x1483 DUP2 DUP5 PUSH2 0xA37 JUMP JUMPDEST ISZERO JUMPDEST ISZERO PUSH2 0x14C7 JUMPI DUP3 PUSH1 0x40 MLOAD PUSH32 0xA9FBF51F00000000000000000000000000000000000000000000000000000000 DUP2 MSTORE PUSH1 0x4 ADD PUSH2 0x14BE SWAP2 SWAP1 PUSH2 0x1B5B JUMP JUMPDEST PUSH1 0x40 MLOAD DUP1 SWAP2 SUB SWAP1 REVERT JUMPDEST DUP2 ISZERO PUSH2 0x1529 JUMPI DUP4 DUP6 PUSH20 0xFFFFFFFFFFFFFFFFFFFFFFFFFFFFFFFFFFFFFFFF AND DUP3 PUSH20 0xFFFFFFFFFFFFFFFFFFFFFFFFFFFFFFFFFFFFFFFF AND PUSH32 0x8C5BE1E5EBEC7D5BD14F71427D1E84F3DD0314C0F7B2291E5B200AC8C7C3B925 PUSH1 0x40 MLOAD PUSH1 0x40 MLOAD DUP1 SWAP2 SUB SWAP1 LOG4 JUMPDEST POP JUMPDEST DUP4 PUSH1 0x4 PUSH0 DUP6 DUP2 MSTORE PUSH1 0x20 ADD SWAP1 DUP2 MSTORE PUSH1 0x20 ADD PUSH0 KECCAK256 PUSH0 PUSH2 0x100 EXP DUP2 SLOAD DUP2 PUSH20 0xFFFFFFFFFFFFFFFFFFFFFFFFFFFFFFFFFFFFFFFF MUL NOT AND SWAP1 DUP4 PUSH20 0xFFFFFFFFFFFFFFFFFFFFFFFFFFFFFFFFFFFFFFFF AND MUL OR SWAP1 SSTORE POP POP POP POP POP JUMP JUMPDEST PUSH2 0x158A DUP4 DUP4 PUSH2 0x17B7 JUMP JUMPDEST PUSH2 0x159E PUSH2 0x1595 PUSH2 0xD32 JUMP JUMPDEST PUSH0 DUP6 DUP6 DUP6 PUSH2 0x10FC JUMP JUMPDEST POP POP POP JUMP JUMPDEST PUSH2 0x15AE DUP4 DUP4 DUP4 PUSH2 0x18AA JUMP JUMPDEST PUSH2 0x1661 JUMPI PUSH0 PUSH20 0xFFFFFFFFFFFFFFFFFFFFFFFFFFFFFFFFFFFFFFFF AND DUP4 PUSH20 0xFFFFFFFFFFFFFFFFFFFFFFFFFFFFFFFFFFFFFFFF AND SUB PUSH2 0x1622 JUMPI DUP1 PUSH1 0x40 MLOAD PUSH32 0x7E27328900000000000000000000000000000000000000000000000000000000 DUP2 MSTORE PUSH1 0x4 ADD PUSH2 0x1619 SWAP2 SWAP1 PUSH2 0x1FC0 JUMP JUMPDEST PUSH1 0x40 MLOAD DUP1 SWAP2 SUB SWAP1 REVERT JUMPDEST DUP2 DUP2 PUSH1 0x40 MLOAD PUSH32 0x177E802F00000000000000000000000000000000000000000000000000000000 DUP2 MSTORE PUSH1 0x4 ADD PUSH2 0x1658 SWAP3 SWAP2 SWAP1 PUSH2 0x1F0E JUMP JUMPDEST PUSH1 0x40 MLOAD DUP1 SWAP2 SUB SWAP1 REVERT JUMPDEST POP POP POP JUMP JUMPDEST PUSH0 DUP1 PUSH0 SWAP1 POP PUSH27 0x184F03E93FF9F4DAA797ED6E38ED64BF6A1F010000000000000000 DUP4 LT PUSH2 0x16C2 JUMPI PUSH27 0x184F03E93FF9F4DAA797ED6E38ED64BF6A1F010000000000000000 DUP4 DUP2 PUSH2 0x16B8 JUMPI PUSH2 0x16B7 PUSH2 0x2633 JUMP JUMPDEST JUMPDEST DIV SWAP3 POP PUSH1 0x40 DUP2 ADD SWAP1 POP JUMPDEST PUSH14 0x4EE2D6D415B85ACEF8100000000 DUP4 LT PUSH2 0x16FF JUMPI PUSH14 0x4EE2D6D415B85ACEF8100000000 DUP4 DUP2 PUSH2 0x16F5 JUMPI PUSH2 0x16F4 PUSH2 0x2633 JUMP JUMPDEST JUMPDEST DIV SWAP3 POP PUSH1 0x20 DUP2 ADD SWAP1 POP JUMPDEST PUSH7 0x2386F26FC10000 DUP4 LT PUSH2 0x172E JUMPI PUSH7 0x2386F26FC10000 DUP4 DUP2 PUSH2 0x1724 JUMPI PUSH2 0x1723 PUSH2 0x2633 JUMP JUMPDEST JUMPDEST DIV SWAP3 POP PUSH1 0x10 DUP2 ADD SWAP1 POP JUMPDEST PUSH4 0x5F5E100 DUP4 LT PUSH2 0x1757 JUMPI PUSH4 0x5F5E100 DUP4 DUP2 PUSH2 0x174D JUMPI PUSH2 0x174C PUSH2 0x2633 JUMP JUMPDEST JUMPDEST DIV SWAP3 POP PUSH1 0x8 DUP2 ADD SWAP1 POP JUMPDEST PUSH2 0x2710 DUP4 LT PUSH2 0x177C JUMPI PUSH2 0x2710 DUP4 DUP2 PUSH2 0x1772 JUMPI PUSH2 0x1771 PUSH2 0x2633 JUMP JUMPDEST JUMPDEST DIV SWAP3 POP PUSH1 0x4 DUP2 ADD SWAP1 POP JUMPDEST PUSH1 0x64 DUP4 LT PUSH2 0x179F JUMPI PUSH1 0x64 DUP4 DUP2 PUSH2 0x1795 JUMPI PUSH2 0x1794 PUSH2 0x2633 JUMP JUMPDEST JUMPDEST DIV SWAP3 POP PUSH1 0x2 DUP2 ADD SWAP1 POP JUMPDEST PUSH1 0xA DUP4 LT PUSH2 0x17AE JUMPI PUSH1 0x1 DUP2 ADD SWAP1 POP JUMPDEST DUP1 SWAP2 POP POP SWAP2 SWAP1 POP JUMP JUMPDEST PUSH0 PUSH20 0xFFFFFFFFFFFFFFFFFFFFFFFFFFFFFFFFFFFFFFFF AND DUP3 PUSH20 0xFFFFFFFFFFFFFFFFFFFFFFFFFFFFFFFFFFFFFFFF AND SUB PUSH2 0x1827 JUMPI PUSH0 PUSH1 0x40 MLOAD PUSH32 0x64A0AE9200000000000000000000000000000000000000000000000000000000 DUP2 MSTORE PUSH1 0x4 ADD PUSH2 0x181E SWAP2 SWAP1 PUSH2 0x1B5B JUMP JUMPDEST PUSH1 0x40 MLOAD DUP1 SWAP2 SUB SWAP1 REVERT JUMPDEST PUSH0 PUSH2 0x1833 DUP4 DUP4 PUSH0 PUSH2 0xD88 JUMP JUMPDEST SWAP1 POP PUSH0 PUSH20 0xFFFFFFFFFFFFFFFFFFFFFFFFFFFFFFFFFFFFFFFF AND DUP2 PUSH20 0xFFFFFFFFFFFFFFFFFFFFFFFFFFFFFFFFFFFFFFFF AND EQ PUSH2 0x18A5 JUMPI PUSH0 PUSH1 0x40 MLOAD PUSH32 0x73C6AC6E00000000000000000000000000000000000000000000000000000000 DUP2 MSTORE PUSH1 0x4 ADD PUSH2 0x189C SWAP2 SWAP1 PUSH2 0x1B5B JUMP JUMPDEST PUSH1 0x40 MLOAD DUP1 SWAP2 SUB SWAP1 REVERT JUMPDEST POP POP POP JUMP JUMPDEST PUSH0 DUP1 PUSH20 0xFFFFFFFFFFFFFFFFFFFFFFFFFFFFFFFFFFFFFFFF AND DUP4 PUSH20 0xFFFFFFFFFFFFFFFFFFFFFFFFFFFFFFFFFFFFFFFF AND EQ ISZERO DUP1 ISZERO PUSH2 0x1961 JUMPI POP DUP3 PUSH20 0xFFFFFFFFFFFFFFFFFFFFFFFFFFFFFFFFFFFFFFFF AND DUP5 PUSH20 0xFFFFFFFFFFFFFFFFFFFFFFFFFFFFFFFFFFFFFFFF AND EQ DUP1 PUSH2 0x1922 JUMPI POP PUSH2 0x1921 DUP5 DUP5 PUSH2 0xA37 JUMP JUMPDEST JUMPDEST DUP1 PUSH2 0x1960 JUMPI POP DUP3 PUSH20 0xFFFFFFFFFFFFFFFFFFFFFFFFFFFFFFFFFFFFFFFF AND PUSH2 0x1948 DUP4 PUSH2 0xCF9 JUMP JUMPDEST PUSH20 0xFFFFFFFFFFFFFFFFFFFFFFFFFFFFFFFFFFFFFFFF AND EQ JUMPDEST JUMPDEST SWAP1 POP SWAP4 SWAP3 POP POP POP JUMP JUMPDEST PUSH0 PUSH1 0x40 MLOAD SWAP1 POP SWAP1 JUMP JUMPDEST PUSH0 DUP1 REVERT JUMPDEST PUSH0 DUP1 REVERT JUMPDEST PUSH0 PUSH32 0xFFFFFFFF00000000000000000000000000000000000000000000000000000000 DUP3 AND SWAP1 POP SWAP2 SWAP1 POP JUMP JUMPDEST PUSH2 0x19AF DUP2 PUSH2 0x197B JUMP JUMPDEST DUP2 EQ PUSH2 0x19B9 JUMPI PUSH0 DUP1 REVERT JUMPDEST POP JUMP JUMPDEST PUSH0 DUP2 CALLDATALOAD SWAP1 POP PUSH2 0x19CA DUP2 PUSH2 0x19A6 JUMP JUMPDEST SWAP3 SWAP2 POP POP JUMP JUMPDEST PUSH0 PUSH1 0x20 DUP3 DUP5 SUB SLT ISZERO PUSH2 0x19E5 JUMPI PUSH2 0x19E4 PUSH2 0x1973 JUMP JUMPDEST JUMPDEST PUSH0 PUSH2 0x19F2 DUP5 DUP3 DUP6 ADD PUSH2 0x19BC JUMP JUMPDEST SWAP2 POP POP SWAP3 SWAP2 POP POP JUMP JUMPDEST PUSH0 DUP2 ISZERO ISZERO SWAP1 POP SWAP2 SWAP1 POP JUMP JUMPDEST PUSH2 0x1A0F DUP2 PUSH2 0x19FB JUMP JUMPDEST DUP3 MSTORE POP POP JUMP JUMPDEST PUSH0 PUSH1 0x20 DUP3 ADD SWAP1 POP PUSH2 0x1A28 PUSH0 DUP4 ADD DUP5 PUSH2 0x1A06 JUMP JUMPDEST SWAP3 SWAP2 POP POP JUMP JUMPDEST PUSH0 DUP2 MLOAD SWAP1 POP SWAP2 SWAP1 POP JUMP JUMPDEST PUSH0 DUP3 DUP3 MSTORE PUSH1 0x20 DUP3 ADD SWAP1 POP SWAP3 SWAP2 POP POP JUMP JUMPDEST DUP3 DUP2 DUP4 MCOPY PUSH0 DUP4 DUP4 ADD MSTORE POP POP POP JUMP JUMPDEST PUSH0 PUSH1 0x1F NOT PUSH1 0x1F DUP4 ADD AND SWAP1 POP SWAP2 SWAP1 POP JUMP JUMPDEST PUSH0 PUSH2 0x1A70 DUP3 PUSH2 0x1A2E JUMP JUMPDEST PUSH2 0x1A7A DUP2 DUP6 PUSH2 0x1A38 JUMP JUMPDEST SWAP4 POP PUSH2 0x1A8A DUP2 DUP6 PUSH1 0x20 DUP7 ADD PUSH2 0x1A48 JUMP JUMPDEST PUSH2 0x1A93 DUP2 PUSH2 0x1A56 JUMP JUMPDEST DUP5 ADD SWAP2 POP POP SWAP3 SWAP2 POP POP JUMP JUMPDEST PUSH0 PUSH1 0x20 DUP3 ADD SWAP1 POP DUP2 DUP2 SUB PUSH0 DUP4 ADD MSTORE PUSH2 0x1AB6 DUP2 DUP5 PUSH2 0x1A66 JUMP JUMPDEST SWAP1 POP SWAP3 SWAP2 POP POP JUMP JUMPDEST PUSH0 DUP2 SWAP1 POP SWAP2 SWAP1 POP JUMP JUMPDEST PUSH2 0x1AD0 DUP2 PUSH2 0x1ABE JUMP JUMPDEST DUP2 EQ PUSH2 0x1ADA JUMPI PUSH0 DUP1 REVERT JUMPDEST POP JUMP JUMPDEST PUSH0 DUP2 CALLDATALOAD SWAP1 POP PUSH2 0x1AEB DUP2 PUSH2 0x1AC7 JUMP JUMPDEST SWAP3 SWAP2 POP POP JUMP JUMPDEST PUSH0 PUSH1 0x20 DUP3 DUP5 SUB SLT ISZERO PUSH2 0x1B06 JUMPI PUSH2 0x1B05 PUSH2 0x1973 JUMP JUMPDEST JUMPDEST PUSH0 PUSH2 0x1B13 DUP5 DUP3 DUP6 ADD PUSH2 0x1ADD JUMP JUMPDEST SWAP2 POP POP SWAP3 SWAP2 POP POP JUMP JUMPDEST PUSH0 PUSH20 0xFFFFFFFFFFFFFFFFFFFFFFFFFFFFFFFFFFFFFFFF DUP3 AND SWAP1 POP SWAP2 SWAP1 POP JUMP JUMPDEST PUSH0 PUSH2 0x1B45 DUP3 PUSH2 0x1B1C JUMP JUMPDEST SWAP1 POP SWAP2 SWAP1 POP JUMP JUMPDEST PUSH2 0x1B55 DUP2 PUSH2 0x1B3B JUMP JUMPDEST DUP3 MSTORE POP POP JUMP JUMPDEST PUSH0 PUSH1 0x20 DUP3 ADD SWAP1 POP PUSH2 0x1B6E PUSH0 DUP4 ADD DUP5 PUSH2 0x1B4C JUMP JUMPDEST SWAP3 SWAP2 POP POP JUMP JUMPDEST PUSH2 0x1B7D DUP2 PUSH2 0x1B3B JUMP JUMPDEST DUP2 EQ PUSH2 0x1B87 JUMPI PUSH0 DUP1 REVERT JUMPDEST POP JUMP JUMPDEST PUSH0 DUP2 CALLDATALOAD SWAP1 POP PUSH2 0x1B98 DUP2 PUSH2 0x1B74 JUMP JUMPDEST SWAP3 SWAP2 POP POP JUMP JUMPDEST PUSH0 DUP1 PUSH1 0x40 DUP4 DUP6 SUB SLT ISZERO PUSH2 0x1BB4 JUMPI PUSH2 0x1BB3 PUSH2 0x1973 JUMP JUMPDEST JUMPDEST PUSH0 PUSH2 0x1BC1 DUP6 DUP3 DUP7 ADD PUSH2 0x1B8A JUMP JUMPDEST SWAP3 POP POP PUSH1 0x20 PUSH2 0x1BD2 DUP6 DUP3 DUP7 ADD PUSH2 0x1ADD JUMP JUMPDEST SWAP2 POP POP SWAP3 POP SWAP3 SWAP1 POP JUMP JUMPDEST PUSH0 DUP1 REVERT JUMPDEST PUSH0 DUP1 REVERT JUMPDEST PUSH32 0x4E487B7100000000000000000000000000000000000000000000000000000000 PUSH0 MSTORE PUSH1 0x41 PUSH1 0x4 MSTORE PUSH1 0x24 PUSH0 REVERT JUMPDEST PUSH2 0x1C1A DUP3 PUSH2 0x1A56 JUMP JUMPDEST DUP2 ADD DUP2 DUP2 LT PUSH8 0xFFFFFFFFFFFFFFFF DUP3 GT OR ISZERO PUSH2 0x1C39 JUMPI PUSH2 0x1C38 PUSH2 0x1BE4 JUMP JUMPDEST JUMPDEST DUP1 PUSH1 0x40 MSTORE POP POP POP JUMP JUMPDEST PUSH0 PUSH2 0x1C4B PUSH2 0x196A JUMP JUMPDEST SWAP1 POP PUSH2 0x1C57 DUP3 DUP3 PUSH2 0x1C11 JUMP JUMPDEST SWAP2 SWAP1 POP JUMP JUMPDEST PUSH0 PUSH8 0xFFFFFFFFFFFFFFFF DUP3 GT ISZERO PUSH2 0x1C76 JUMPI PUSH2 0x1C75 PUSH2 0x1BE4 JUMP JUMPDEST JUMPDEST PUSH2 0x1C7F DUP3 PUSH2 0x1A56 JUMP JUMPDEST SWAP1 POP PUSH1 0x20 DUP2 ADD SWAP1 POP SWAP2 SWAP1 POP JUMP JUMPDEST DUP3 DUP2 DUP4 CALLDATACOPY PUSH0 DUP4 DUP4 ADD MSTORE POP POP POP JUMP JUMPDEST PUSH0 PUSH2 0x1CAC PUSH2 0x1CA7 DUP5 PUSH2 0x1C5C JUMP JUMPDEST PUSH2 0x1C42 JUMP JUMPDEST SWAP1 POP DUP3 DUP2 MSTORE PUSH1 0x20 DUP2 ADD DUP5 DUP5 DUP5 ADD GT ISZERO PUSH2 0x1CC8 JUMPI PUSH2 0x1CC7 PUSH2 0x1BE0 JUMP JUMPDEST JUMPDEST PUSH2 0x1CD3 DUP5 DUP3 DUP6 PUSH2 0x1C8C JUMP JUMPDEST POP SWAP4 SWAP3 POP POP POP JUMP JUMPDEST PUSH0 DUP3 PUSH1 0x1F DUP4 ADD SLT PUSH2 0x1CEF JUMPI PUSH2 0x1CEE PUSH2 0x1BDC JUMP JUMPDEST JUMPDEST DUP2 CALLDATALOAD PUSH2 0x1CFF DUP5 DUP3 PUSH1 0x20 DUP7 ADD PUSH2 0x1C9A JUMP JUMPDEST SWAP2 POP POP SWAP3 SWAP2 POP POP JUMP JUMPDEST PUSH0 PUSH2 0xFFFF DUP3 AND SWAP1 POP SWAP2 SWAP1 POP JUMP JUMPDEST PUSH2 0x1D1E DUP2 PUSH2 0x1D08 JUMP JUMPDEST DUP2 EQ PUSH2 0x1D28 JUMPI PUSH0 DUP1 REVERT JUMPDEST POP JUMP JUMPDEST PUSH0 DUP2 CALLDATALOAD SWAP1 POP PUSH2 0x1D39 DUP2 PUSH2 0x1D15 JUMP JUMPDEST SWAP3 SWAP2 POP POP JUMP JUMPDEST PUSH0 PUSH1 0xFF DUP3 AND SWAP1 POP SWAP2 SWAP1 POP JUMP JUMPDEST PUSH2 0x1D54 DUP2 PUSH2 0x1D3F JUMP JUMPDEST DUP2 EQ PUSH2 0x1D5E JUMPI PUSH0 DUP1 REVERT JUMPDEST POP JUMP JUMPDEST PUSH0 DUP2 CALLDATALOAD SWAP1 POP PUSH2 0x1D6F DUP2 PUSH2 0x1D4B JUMP JUMPDEST SWAP3 SWAP2 POP POP JUMP JUMPDEST PUSH0 DUP1 PUSH0 DUP1 PUSH0 DUP1 PUSH0 DUP1 PUSH0 PUSH2 0x120 DUP11 DUP13 SUB SLT ISZERO PUSH2 0x1D93 JUMPI PUSH2 0x1D92 PUSH2 0x1973 JUMP JUMPDEST JUMPDEST PUSH0 PUSH2 0x1DA0 DUP13 DUP3 DUP14 ADD PUSH2 0x1B8A JUMP JUMPDEST SWAP10 POP POP PUSH1 0x20 DUP11 ADD CALLDATALOAD PUSH8 0xFFFFFFFFFFFFFFFF DUP2 GT ISZERO PUSH2 0x1DC1 JUMPI PUSH2 0x1DC0 PUSH2 0x1977 JUMP JUMPDEST JUMPDEST PUSH2 0x1DCD DUP13 DUP3 DUP14 ADD PUSH2 0x1CDB JUMP JUMPDEST SWAP9 POP POP PUSH1 0x40 DUP11 ADD CALLDATALOAD PUSH8 0xFFFFFFFFFFFFFFFF DUP2 GT ISZERO PUSH2 0x1DEE JUMPI PUSH2 0x1DED PUSH2 0x1977 JUMP JUMPDEST JUMPDEST PUSH2 0x1DFA DUP13 DUP3 DUP14 ADD PUSH2 0x1CDB JUMP JUMPDEST SWAP8 POP POP PUSH1 0x60 PUSH2 0x1E0B DUP13 DUP3 DUP14 ADD PUSH2 0x1D2B JUMP JUMPDEST SWAP7 POP POP PUSH1 0x80 PUSH2 0x1E1C DUP13 DUP3 DUP14 ADD PUSH2 0x1ADD JUMP JUMPDEST SWAP6 POP POP PUSH1 0xA0 PUSH2 0x1E2D DUP13 DUP3 DUP14 ADD PUSH2 0x1ADD JUMP JUMPDEST SWAP5 POP POP PUSH1 0xC0 PUSH2 0x1E3E DUP13 DUP3 DUP14 ADD PUSH2 0x1D61 JUMP JUMPDEST SWAP4 POP POP PUSH1 0xE0 PUSH2 0x1E4F DUP13 DUP3 DUP14 ADD PUSH2 0x1ADD JUMP JUMPDEST SWAP3 POP POP PUSH2 0x100 PUSH2 0x1E61 DUP13 DUP3 DUP14 ADD PUSH2 0x1ADD JUMP JUMPDEST SWAP2 POP POP SWAP3 SWAP6 SWAP9 POP SWAP3 SWAP6 SWAP9 POP SWAP3 SWAP6 SWAP9 JUMP JUMPDEST PUSH0 DUP1 PUSH0 PUSH1 0x60 DUP5 DUP7 SUB SLT ISZERO PUSH2 0x1E88 JUMPI PUSH2 0x1E87 PUSH2 0x1973 JUMP JUMPDEST JUMPDEST PUSH0 PUSH2 0x1E95 DUP7 DUP3 DUP8 ADD PUSH2 0x1B8A JUMP JUMPDEST SWAP4 POP POP PUSH1 0x20 PUSH2 0x1EA6 DUP7 DUP3 DUP8 ADD PUSH2 0x1B8A JUMP JUMPDEST SWAP3 POP POP PUSH1 0x40 PUSH2 0x1EB7 DUP7 DUP3 DUP8 ADD PUSH2 0x1ADD JUMP JUMPDEST SWAP2 POP POP SWAP3 POP SWAP3 POP SWAP3 JUMP JUMPDEST PUSH0 DUP1 PUSH1 0x40 DUP4 DUP6 SUB SLT ISZERO PUSH2 0x1ED7 JUMPI PUSH2 0x1ED6 PUSH2 0x1973 JUMP JUMPDEST JUMPDEST PUSH0 PUSH2 0x1EE4 DUP6 DUP3 DUP7 ADD PUSH2 0x1ADD JUMP JUMPDEST SWAP3 POP POP PUSH1 0x20 PUSH2 0x1EF5 DUP6 DUP3 DUP7 ADD PUSH2 0x1ADD JUMP JUMPDEST SWAP2 POP POP SWAP3 POP SWAP3 SWAP1 POP JUMP JUMPDEST PUSH2 0x1F08 DUP2 PUSH2 0x1ABE JUMP JUMPDEST DUP3 MSTORE POP POP JUMP JUMPDEST PUSH0 PUSH1 0x40 DUP3 ADD SWAP1 POP PUSH2 0x1F21 PUSH0 DUP4 ADD DUP6 PUSH2 0x1B4C JUMP JUMPDEST PUSH2 0x1F2E PUSH1 0x20 DUP4 ADD DUP5 PUSH2 0x1EFF JUMP JUMPDEST SWAP4 SWAP3 POP POP POP JUMP JUMPDEST PUSH2 0x1F3E DUP2 PUSH2 0x1D3F JUMP JUMPDEST DUP3 MSTORE POP POP JUMP JUMPDEST PUSH0 PUSH1 0xA0 DUP3 ADD SWAP1 POP PUSH2 0x1F57 PUSH0 DUP4 ADD DUP9 PUSH2 0x1EFF JUMP JUMPDEST PUSH2 0x1F64 PUSH1 0x20 DUP4 ADD DUP8 PUSH2 0x1EFF JUMP JUMPDEST PUSH2 0x1F71 PUSH1 0x40 DUP4 ADD DUP7 PUSH2 0x1F35 JUMP JUMPDEST PUSH2 0x1F7E PUSH1 0x60 DUP4 ADD DUP6 PUSH2 0x1EFF JUMP JUMPDEST PUSH2 0x1F8B PUSH1 0x80 DUP4 ADD DUP5 PUSH2 0x1EFF JUMP JUMPDEST SWAP7 SWAP6 POP POP POP POP POP POP JUMP JUMPDEST PUSH0 PUSH1 0x20 DUP3 DUP5 SUB SLT ISZERO PUSH2 0x1FAA JUMPI PUSH2 0x1FA9 PUSH2 0x1973 JUMP JUMPDEST JUMPDEST PUSH0 PUSH2 0x1FB7 DUP5 DUP3 DUP6 ADD PUSH2 0x1B8A JUMP JUMPDEST SWAP2 POP POP SWAP3 SWAP2 POP POP JUMP JUMPDEST PUSH0 PUSH1 0x20 DUP3 ADD SWAP1 POP PUSH2 0x1FD3 PUSH0 DUP4 ADD DUP5 PUSH2 0x1EFF JUMP JUMPDEST SWAP3 SWAP2 POP POP JUMP JUMPDEST PUSH2 0x1FE2 DUP2 PUSH2 0x19FB JUMP JUMPDEST DUP2 EQ PUSH2 0x1FEC JUMPI PUSH0 DUP1 REVERT JUMPDEST POP JUMP JUMPDEST PUSH0 DUP2 CALLDATALOAD SWAP1 POP PUSH2 0x1FFD DUP2 PUSH2 0x1FD9 JUMP JUMPDEST SWAP3 SWAP2 POP POP JUMP JUMPDEST PUSH0 DUP1 PUSH1 0x40 DUP4 DUP6 SUB SLT ISZERO PUSH2 0x2019 JUMPI PUSH2 0x2018 PUSH2 0x1973 JUMP JUMPDEST JUMPDEST PUSH0 PUSH2 0x2026 DUP6 DUP3 DUP7 ADD PUSH2 0x1B8A JUMP JUMPDEST SWAP3 POP POP PUSH1 0x20 PUSH2 0x2037 DUP6 DUP3 DUP7 ADD PUSH2 0x1FEF JUMP JUMPDEST SWAP2 POP POP SWAP3 POP SWAP3 SWAP1 POP JUMP JUMPDEST PUSH0 PUSH8 0xFFFFFFFFFFFFFFFF DUP3 GT ISZERO PUSH2 0x205B JUMPI PUSH2 0x205A PUSH2 0x1BE4 JUMP JUMPDEST JUMPDEST PUSH2 0x2064 DUP3 PUSH2 0x1A56 JUMP JUMPDEST SWAP1 POP PUSH1 0x20 DUP2 ADD SWAP1 POP SWAP2 SWAP1 POP JUMP JUMPDEST PUSH0 PUSH2 0x2083 PUSH2 0x207E DUP5 PUSH2 0x2041 JUMP JUMPDEST PUSH2 0x1C42 JUMP JUMPDEST SWAP1 POP DUP3 DUP2 MSTORE PUSH1 0x20 DUP2 ADD DUP5 DUP5 DUP5 ADD GT ISZERO PUSH2 0x209F JUMPI PUSH2 0x209E PUSH2 0x1BE0 JUMP JUMPDEST JUMPDEST PUSH2 0x20AA DUP5 DUP3 DUP6 PUSH2 0x1C8C JUMP JUMPDEST POP SWAP4 SWAP3 POP POP POP JUMP JUMPDEST PUSH0 DUP3 PUSH1 0x1F DUP4 ADD SLT PUSH2 0x20C6 JUMPI PUSH2 0x20C5 PUSH2 0x1BDC JUMP JUMPDEST JUMPDEST DUP2 CALLDATALOAD PUSH2 0x20D6 DUP5 DUP3 PUSH1 0x20 DUP7 ADD PUSH2 0x2071 JUMP JUMPDEST SWAP2 POP POP SWAP3 SWAP2 POP POP JUMP JUMPDEST PUSH0 DUP1 PUSH0 DUP1 PUSH1 0x80 DUP6 DUP8 SUB SLT ISZERO PUSH2 0x20F7 JUMPI PUSH2 0x20F6 PUSH2 0x1973 JUMP JUMPDEST JUMPDEST PUSH0 PUSH2 0x2104 DUP8 DUP3 DUP9 ADD PUSH2 0x1B8A JUMP JUMPDEST SWAP5 POP POP PUSH1 0x20 PUSH2 0x2115 DUP8 DUP3 DUP9 ADD PUSH2 0x1B8A JUMP JUMPDEST SWAP4 POP POP PUSH1 0x40 PUSH2 0x2126 DUP8 DUP3 DUP9 ADD PUSH2 0x1ADD JUMP JUMPDEST SWAP3 POP POP PUSH1 0x60 DUP6 ADD CALLDATALOAD PUSH8 0xFFFFFFFFFFFFFFFF DUP2 GT ISZERO PUSH2 0x2147 JUMPI PUSH2 0x2146 PUSH2 0x1977 JUMP JUMPDEST JUMPDEST PUSH2 0x2153 DUP8 DUP3 DUP9 ADD PUSH2 0x20B2 JUMP JUMPDEST SWAP2 POP POP SWAP3 SWAP6 SWAP2 SWAP5 POP SWAP3 POP JUMP JUMPDEST PUSH0 DUP1 PUSH1 0x40 DUP4 DUP6 SUB SLT ISZERO PUSH2 0x2175 JUMPI PUSH2 0x2174 PUSH2 0x1973 JUMP JUMPDEST JUMPDEST PUSH0 PUSH2 0x2182 DUP6 DUP3 DUP7 ADD PUSH2 0x1B8A JUMP JUMPDEST SWAP3 POP POP PUSH1 0x20 PUSH2 0x2193 DUP6 DUP3 DUP7 ADD PUSH2 0x1B8A JUMP JUMPDEST SWAP2 POP POP SWAP3 POP SWAP3 SWAP1 POP JUMP JUMPDEST PUSH2 0x21A6 DUP2 PUSH2 0x1D08 JUMP JUMPDEST DUP3 MSTORE POP POP JUMP JUMPDEST PUSH0 PUSH1 0x80 DUP3 ADD SWAP1 POP DUP2 DUP2 SUB PUSH0 DUP4 ADD MSTORE PUSH2 0x21C4 DUP2 DUP8 PUSH2 0x1A66 JUMP JUMPDEST SWAP1 POP DUP2 DUP2 SUB PUSH1 0x20 DUP4 ADD MSTORE PUSH2 0x21D8 DUP2 DUP7 PUSH2 0x1A66 JUMP JUMPDEST SWAP1 POP PUSH2 0x21E7 PUSH1 0x40 DUP4 ADD DUP6 PUSH2 0x219D JUMP JUMPDEST PUSH2 0x21F4 PUSH1 0x60 DUP4 ADD DUP5 PUSH2 0x1EFF JUMP JUMPDEST SWAP6 SWAP5 POP POP POP POP POP JUMP JUMPDEST PUSH32 0x4E487B7100000000000000000000000000000000000000000000000000000000 PUSH0 MSTORE PUSH1 0x22 PUSH1 0x4 MSTORE PUSH1 0x24 PUSH0 REVERT JUMPDEST PUSH0 PUSH1 0x2 DUP3 DIV SWAP1 POP PUSH1 0x1 DUP3 AND DUP1 PUSH2 0x2241 JUMPI PUSH1 0x7F DUP3 AND SWAP2 POP JUMPDEST PUSH1 0x20 DUP3 LT DUP2 SUB PUSH2 0x2254 JUMPI PUSH2 0x2253 PUSH2 0x21FD JUMP JUMPDEST JUMPDEST POP SWAP2 SWAP1 POP JUMP JUMPDEST PUSH0 DUP2 SWAP1 POP DUP2 PUSH0 MSTORE PUSH1 0x20 PUSH0 KECCAK256 SWAP1 POP SWAP2 SWAP1 POP JUMP JUMPDEST PUSH0 PUSH1 0x20 PUSH1 0x1F DUP4 ADD DIV SWAP1 POP SWAP2 SWAP1 POP JUMP JUMPDEST PUSH0 DUP3 DUP3 SHL SWAP1 POP SWAP3 SWAP2 POP POP JUMP JUMPDEST PUSH0 PUSH1 0x8 DUP4 MUL PUSH2 0x22B6 PUSH32 0xFFFFFFFFFFFFFFFFFFFFFFFFFFFFFFFFFFFFFFFFFFFFFFFFFFFFFFFFFFFFFFFF DUP3 PUSH2 0x227B JUMP JUMPDEST PUSH2 0x22C0 DUP7 DUP4 PUSH2 0x227B JUMP JUMPDEST SWAP6 POP DUP1 NOT DUP5 AND SWAP4 POP DUP1 DUP7 AND DUP5 OR SWAP3 POP POP POP SWAP4 SWAP3 POP POP POP JUMP JUMPDEST PUSH0 DUP2 SWAP1 POP SWAP2 SWAP1 POP JUMP JUMPDEST PUSH0 PUSH2 0x22FB PUSH2 0x22F6 PUSH2 0x22F1 DUP5 PUSH2 0x1ABE JUMP JUMPDEST PUSH2 0x22D8 JUMP JUMPDEST PUSH2 0x1ABE JUMP JUMPDEST SWAP1 POP SWAP2 SWAP1 POP JUMP JUMPDEST PUSH0 DUP2 SWAP1 POP SWAP2 SWAP1 POP JUMP JUMPDEST PUSH2 0x2314 DUP4 PUSH2 0x22E1 JUMP JUMPDEST PUSH2 0x2328 PUSH2 0x2320 DUP3 PUSH2 0x2302 JUMP JUMPDEST DUP5 DUP5 SLOAD PUSH2 0x2287 JUMP JUMPDEST DUP3 SSTORE POP POP POP POP JUMP JUMPDEST PUSH0 SWAP1 JUMP JUMPDEST PUSH2 0x233C PUSH2 0x2330 JUMP JUMPDEST PUSH2 0x2347 DUP2 DUP5 DUP5 PUSH2 0x230B JUMP JUMPDEST POP POP POP JUMP JUMPDEST JUMPDEST DUP2 DUP2 LT ISZERO PUSH2 0x236A JUMPI PUSH2 0x235F PUSH0 DUP3 PUSH2 0x2334 JUMP JUMPDEST PUSH1 0x1 DUP2 ADD SWAP1 POP PUSH2 0x234D JUMP JUMPDEST POP POP JUMP JUMPDEST PUSH1 0x1F DUP3 GT ISZERO PUSH2 0x23AF JUMPI PUSH2 0x2380 DUP2 PUSH2 0x225A JUMP JUMPDEST PUSH2 0x2389 DUP5 PUSH2 0x226C JUMP JUMPDEST DUP2 ADD PUSH1 0x20 DUP6 LT ISZERO PUSH2 0x2398 JUMPI DUP2 SWAP1 POP JUMPDEST PUSH2 0x23AC PUSH2 0x23A4 DUP6 PUSH2 0x226C JUMP JUMPDEST DUP4 ADD DUP3 PUSH2 0x234C JUMP JUMPDEST POP POP JUMPDEST POP POP POP JUMP JUMPDEST PUSH0 DUP3 DUP3 SHR SWAP1 POP SWAP3 SWAP2 POP POP JUMP JUMPDEST PUSH0 PUSH2 0x23CF PUSH0 NOT DUP5 PUSH1 0x8 MUL PUSH2 0x23B4 JUMP JUMPDEST NOT DUP1 DUP4 AND SWAP2 POP POP SWAP3 SWAP2 POP POP JUMP JUMPDEST PUSH0 PUSH2 0x23E7 DUP4 DUP4 PUSH2 0x23C0 JUMP JUMPDEST SWAP2 POP DUP3 PUSH1 0x2 MUL DUP3 OR SWAP1 POP SWAP3 SWAP2 POP POP JUMP JUMPDEST PUSH2 0x2400 DUP3 PUSH2 0x1A2E JUMP JUMPDEST PUSH8 0xFFFFFFFFFFFFFFFF DUP2 GT ISZERO PUSH2 0x2419 JUMPI PUSH2 0x2418 PUSH2 0x1BE4 JUMP JUMPDEST JUMPDEST PUSH2 0x2423 DUP3 SLOAD PUSH2 0x222A JUMP JUMPDEST PUSH2 0x242E DUP3 DUP3 DUP6 PUSH2 0x236E JUMP JUMPDEST PUSH0 PUSH1 0x20 SWAP1 POP PUSH1 0x1F DUP4 GT PUSH1 0x1 DUP2 EQ PUSH2 0x245F JUMPI PUSH0 DUP5 ISZERO PUSH2 0x244D JUMPI DUP3 DUP8 ADD MLOAD SWAP1 POP JUMPDEST PUSH2 0x2457 DUP6 DUP3 PUSH2 0x23DC JUMP JUMPDEST DUP7 SSTORE POP PUSH2 0x24BE JUMP JUMPDEST PUSH1 0x1F NOT DUP5 AND PUSH2 0x246D DUP7 PUSH2 0x225A JUMP JUMPDEST PUSH0 JUMPDEST DUP3 DUP2 LT ISZERO PUSH2 0x2494 JUMPI DUP5 DUP10 ADD MLOAD DUP3 SSTORE PUSH1 0x1 DUP3 ADD SWAP2 POP PUSH1 0x20 DUP6 ADD SWAP5 POP PUSH1 0x20 DUP2 ADD SWAP1 POP PUSH2 0x246F JUMP JUMPDEST DUP7 DUP4 LT ISZERO PUSH2 0x24B1 JUMPI DUP5 DUP10 ADD MLOAD PUSH2 0x24AD PUSH1 0x1F DUP10 AND DUP3 PUSH2 0x23C0 JUMP JUMPDEST DUP4 SSTORE POP JUMPDEST PUSH1 0x1 PUSH1 0x2 DUP9 MUL ADD DUP9 SSTORE POP POP POP JUMPDEST POP POP POP POP POP POP JUMP JUMPDEST PUSH0 PUSH1 0x60 DUP3 ADD SWAP1 POP PUSH2 0x24D9 PUSH0 DUP4 ADD DUP7 PUSH2 0x1B4C JUMP JUMPDEST PUSH2 0x24E6 PUSH1 0x20 DUP4 ADD DUP6 PUSH2 0x1EFF JUMP JUMPDEST PUSH2 0x24F3 PUSH1 0x40 DUP4 ADD DUP5 PUSH2 0x1B4C JUMP JUMPDEST SWAP5 SWAP4 POP POP POP POP JUMP JUMPDEST PUSH0 DUP2 SWAP1 POP SWAP3 SWAP2 POP POP JUMP JUMPDEST PUSH0 PUSH2 0x250F DUP3 PUSH2 0x1A2E JUMP JUMPDEST PUSH2 0x2519 DUP2 DUP6 PUSH2 0x24FB JUMP JUMPDEST SWAP4 POP PUSH2 0x2529 DUP2 DUP6 PUSH1 0x20 DUP7 ADD PUSH2 0x1A48 JUMP JUMPDEST DUP1 DUP5 ADD SWAP2 POP POP SWAP3 SWAP2 POP POP JUMP JUMPDEST PUSH0 PUSH2 0x2540 DUP3 DUP6 PUSH2 0x2505 JUMP JUMPDEST SWAP2 POP PUSH2 0x254C DUP3 DUP5 PUSH2 0x2505 JUMP JUMPDEST SWAP2 POP DUP2 SWAP1 POP SWAP4 SWAP3 POP POP POP JUMP JUMPDEST PUSH0 DUP2 MLOAD SWAP1 POP SWAP2 SWAP1 POP JUMP JUMPDEST PUSH0 DUP3 DUP3 MSTORE PUSH1 0x20 DUP3 ADD SWAP1 POP SWAP3 SWAP2 POP POP JUMP JUMPDEST PUSH0 PUSH2 0x257C DUP3 PUSH2 0x2558 JUMP JUMPDEST PUSH2 0x2586 DUP2 DUP6 PUSH2 0x2562 JUMP JUMPDEST SWAP4 POP PUSH2 0x2596 DUP2 DUP6 PUSH1 0x20 DUP7 ADD PUSH2 0x1A48 JUMP JUMPDEST PUSH2 0x259F DUP2 PUSH2 0x1A56 JUMP JUMPDEST DUP5 ADD SWAP2 POP POP SWAP3 SWAP2 POP POP JUMP JUMPDEST PUSH0 PUSH1 0x80 DUP3 ADD SWAP1 POP PUSH2 0x25BD PUSH0 DUP4 ADD DUP8 PUSH2 0x1B4C JUMP JUMPDEST PUSH2 0x25CA PUSH1 0x20 DUP4 ADD DUP7 PUSH2 0x1B4C JUMP JUMPDEST PUSH2 0x25D7 PUSH1 0x40 DUP4 ADD DUP6 PUSH2 0x1EFF JUMP JUMPDEST DUP2 DUP2 SUB PUSH1 0x60 DUP4 ADD MSTORE PUSH2 0x25E9 DUP2 DUP5 PUSH2 0x2572 JUMP JUMPDEST SWAP1 POP SWAP6 SWAP5 POP POP POP POP POP JUMP JUMPDEST PUSH0 DUP2 MLOAD SWAP1 POP PUSH2 0x2602 DUP2 PUSH2 0x19A6 JUMP JUMPDEST SWAP3 SWAP2 POP POP JUMP JUMPDEST PUSH0 PUSH1 0x20 DUP3 DUP5 SUB SLT ISZERO PUSH2 0x261D JUMPI PUSH2 0x261C PUSH2 0x1973 JUMP JUMPDEST JUMPDEST PUSH0 PUSH2 0x262A DUP5 DUP3 DUP6 ADD PUSH2 0x25F4 JUMP JUMPDEST SWAP2 POP POP SWAP3 SWAP2 POP POP JUMP JUMPDEST PUSH32 0x4E487B7100000000000000000000000000000000000000000000000000000000 PUSH0 MSTORE PUSH1 0x12 PUSH1 0x4 MSTORE PUSH1 0x24 PUSH0 REVERT INVALID LOG2 PUSH5 0x6970667358 0x22 SLT KECCAK256 0x1F RETURN CALLDATACOPY 0xAD PC 0xC1 0xD3 CODECOPY 0xCC STOP DUP16 SWAP13 CODECOPY PUSH30 0x60C64D619448C47283679AC4DACE51A4A59B64736F6C634300081A003300 "
		},
		"gasEstimates": {
			"creation": {
				"codeDepositCost": "1975600",
				"executionCost": "infinite",
				"totalCost": "infinite"
			},
			"external": {
				"approve(address,uint256)": "infinite",
				"balanceOf(address)": "infinite",
				"cars(uint256)": "infinite",
				"getApproved(uint256)": "infinite",
				"isApprovedForAll(address,address)": "infinite",
				"leaseDetails(uint256)": "infinite",
				"mintCar(address,string,string,uint16,uint256,uint256,uint8,uint256,uint256)": "infinite",
				"name()": "infinite",
				"ownerOf(uint256)": "infinite",
				"payments(uint256,uint256)": "infinite",
				"safeTransferFrom(address,address,uint256)": "infinite",
				"safeTransferFrom(address,address,uint256,bytes)": "infinite",
				"setApprovalForAll(address,bool)": "infinite",
				"supportsInterface(bytes4)": "787",
				"symbol()": "infinite",
				"tokenURI(uint256)": "infinite",
				"transferFrom(address,address,uint256)": "infinite"
			}
		},
		"methodIdentifiers": {
			"approve(address,uint256)": "095ea7b3",
			"balanceOf(address)": "70a08231",
			"cars(uint256)": "f7746e36",
			"getApproved(uint256)": "081812fc",
			"isApprovedForAll(address,address)": "e985e9c5",
			"leaseDetails(uint256)": "5e5380ce",
			"mintCar(address,string,string,uint16,uint256,uint256,uint8,uint256,uint256)": "12376ca2",
			"name()": "06fdde03",
			"ownerOf(uint256)": "6352211e",
			"payments(uint256,uint256)": "2655bd73",
			"safeTransferFrom(address,address,uint256)": "42842e0e",
			"safeTransferFrom(address,address,uint256,bytes)": "b88d4fde",
			"setApprovalForAll(address,bool)": "a22cb465",
			"supportsInterface(bytes4)": "01ffc9a7",
			"symbol()": "95d89b41",
			"tokenURI(uint256)": "c87b56dd",
			"transferFrom(address,address,uint256)": "23b872dd"
		}
	},
	"abi": [
		{
			"inputs": [
				{
					"internalType": "address",
					"name": "sender",
					"type": "address"
				},
				{
					"internalType": "uint256",
					"name": "tokenId",
					"type": "uint256"
				},
				{
					"internalType": "address",
					"name": "owner",
					"type": "address"
				}
			],
			"name": "ERC721IncorrectOwner",
			"type": "error"
		},
		{
			"inputs": [
				{
					"internalType": "address",
					"name": "operator",
					"type": "address"
				},
				{
					"internalType": "uint256",
					"name": "tokenId",
					"type": "uint256"
				}
			],
			"name": "ERC721InsufficientApproval",
			"type": "error"
		},
		{
			"inputs": [
				{
					"internalType": "address",
					"name": "approver",
					"type": "address"
				}
			],
			"name": "ERC721InvalidApprover",
			"type": "error"
		},
		{
			"inputs": [
				{
					"internalType": "address",
					"name": "operator",
					"type": "address"
				}
			],
			"name": "ERC721InvalidOperator",
			"type": "error"
		},
		{
			"inputs": [
				{
					"internalType": "address",
					"name": "owner",
					"type": "address"
				}
			],
			"name": "ERC721InvalidOwner",
			"type": "error"
		},
		{
			"inputs": [
				{
					"internalType": "address",
					"name": "receiver",
					"type": "address"
				}
			],
			"name": "ERC721InvalidReceiver",
			"type": "error"
		},
		{
			"inputs": [
				{
					"internalType": "address",
					"name": "sender",
					"type": "address"
				}
			],
			"name": "ERC721InvalidSender",
			"type": "error"
		},
		{
			"inputs": [
				{
					"internalType": "uint256",
					"name": "tokenId",
					"type": "uint256"
				}
			],
			"name": "ERC721NonexistentToken",
			"type": "error"
		},
		{
			"anonymous": false,
			"inputs": [
				{
					"indexed": true,
					"internalType": "address",
					"name": "owner",
					"type": "address"
				},
				{
					"indexed": true,
					"internalType": "address",
					"name": "approved",
					"type": "address"
				},
				{
					"indexed": true,
					"internalType": "uint256",
					"name": "tokenId",
					"type": "uint256"
				}
			],
			"name": "Approval",
			"type": "event"
		},
		{
			"anonymous": false,
			"inputs": [
				{
					"indexed": true,
					"internalType": "address",
					"name": "owner",
					"type": "address"
				},
				{
					"indexed": true,
					"internalType": "address",
					"name": "operator",
					"type": "address"
				},
				{
					"indexed": false,
					"internalType": "bool",
					"name": "approved",
					"type": "bool"
				}
			],
			"name": "ApprovalForAll",
			"type": "event"
		},
		{
			"anonymous": false,
			"inputs": [
				{
					"indexed": true,
					"internalType": "address",
					"name": "from",
					"type": "address"
				},
				{
					"indexed": true,
					"internalType": "address",
					"name": "to",
					"type": "address"
				},
				{
					"indexed": true,
					"internalType": "uint256",
					"name": "tokenId",
					"type": "uint256"
				}
			],
			"name": "Transfer",
			"type": "event"
		},
		{
			"inputs": [
				{
					"internalType": "address",
					"name": "to",
					"type": "address"
				},
				{
					"internalType": "uint256",
					"name": "tokenId",
					"type": "uint256"
				}
			],
			"name": "approve",
			"outputs": [],
			"stateMutability": "nonpayable",
			"type": "function"
		},
		{
			"inputs": [
				{
					"internalType": "address",
					"name": "owner",
					"type": "address"
				}
			],
			"name": "balanceOf",
			"outputs": [
				{
					"internalType": "uint256",
					"name": "",
					"type": "uint256"
				}
			],
			"stateMutability": "view",
			"type": "function"
		},
		{
			"inputs": [
				{
					"internalType": "uint256",
					"name": "",
					"type": "uint256"
				}
			],
			"name": "cars",
			"outputs": [
				{
					"internalType": "string",
					"name": "model",
					"type": "string"
				},
				{
					"internalType": "string",
					"name": "color",
					"type": "string"
				},
				{
					"internalType": "uint16",
					"name": "year_of_matriculation",
					"type": "uint16"
				},
				{
					"internalType": "uint256",
					"name": "original_value",
					"type": "uint256"
				}
			],
			"stateMutability": "view",
			"type": "function"
		},
		{
			"inputs": [
				{
					"internalType": "uint256",
					"name": "tokenId",
					"type": "uint256"
				}
			],
			"name": "getApproved",
			"outputs": [
				{
					"internalType": "address",
					"name": "",
					"type": "address"
				}
			],
			"stateMutability": "view",
			"type": "function"
		},
		{
			"inputs": [
				{
					"internalType": "address",
					"name": "owner",
					"type": "address"
				},
				{
					"internalType": "address",
					"name": "operator",
					"type": "address"
				}
			],
			"name": "isApprovedForAll",
			"outputs": [
				{
					"internalType": "bool",
					"name": "",
					"type": "bool"
				}
			],
			"stateMutability": "view",
			"type": "function"
		},
		{
			"inputs": [
				{
					"internalType": "uint256",
					"name": "",
					"type": "uint256"
				}
			],
			"name": "leaseDetails",
			"outputs": [
				{
					"internalType": "uint256",
					"name": "org_value",
					"type": "uint256"
				},
				{
					"internalType": "uint256",
					"name": "current_mileage",
					"type": "uint256"
				},
				{
					"internalType": "uint8",
					"name": "driver_experience",
					"type": "uint8"
				},
				{
					"internalType": "uint256",
					"name": "mileage_cap",
					"type": "uint256"
				},
				{
					"internalType": "uint256",
					"name": "contract_duration",
					"type": "uint256"
				}
			],
			"stateMutability": "view",
			"type": "function"
		},
		{
			"inputs": [
				{
					"internalType": "address",
					"name": "to",
					"type": "address"
				},
				{
					"internalType": "string",
					"name": "model",
					"type": "string"
				},
				{
					"internalType": "string",
					"name": "color",
					"type": "string"
				},
				{
					"internalType": "uint16",
					"name": "year_of_matriculation",
					"type": "uint16"
				},
				{
					"internalType": "uint256",
					"name": "original_value",
					"type": "uint256"
				},
				{
					"internalType": "uint256",
					"name": "current_mileage",
					"type": "uint256"
				},
				{
					"internalType": "uint8",
					"name": "driver_experience",
					"type": "uint8"
				},
				{
					"internalType": "uint256",
					"name": "mileage_cap",
					"type": "uint256"
				},
				{
					"internalType": "uint256",
					"name": "contract_duration",
					"type": "uint256"
				}
			],
			"name": "mintCar",
			"outputs": [],
			"stateMutability": "nonpayable",
			"type": "function"
		},
		{
			"inputs": [],
			"name": "name",
			"outputs": [
				{
					"internalType": "string",
					"name": "",
					"type": "string"
				}
			],
			"stateMutability": "view",
			"type": "function"
		},
		{
			"inputs": [
				{
					"internalType": "uint256",
					"name": "tokenId",
					"type": "uint256"
				}
			],
			"name": "ownerOf",
			"outputs": [
				{
					"internalType": "address",
					"name": "",
					"type": "address"
				}
			],
			"stateMutability": "view",
			"type": "function"
		},
		{
			"inputs": [
				{
					"internalType": "uint256",
					"name": "",
					"type": "uint256"
				},
				{
					"internalType": "uint256",
					"name": "",
					"type": "uint256"
				}
			],
			"name": "payments",
			"outputs": [
				{
					"internalType": "address",
					"name": "lessee",
					"type": "address"
				},
				{
					"internalType": "uint256",
					"name": "amount",
					"type": "uint256"
				}
			],
			"stateMutability": "view",
			"type": "function"
		},
		{
			"inputs": [
				{
					"internalType": "address",
					"name": "from",
					"type": "address"
				},
				{
					"internalType": "address",
					"name": "to",
					"type": "address"
				},
				{
					"internalType": "uint256",
					"name": "tokenId",
					"type": "uint256"
				}
			],
			"name": "safeTransferFrom",
			"outputs": [],
			"stateMutability": "nonpayable",
			"type": "function"
		},
		{
			"inputs": [
				{
					"internalType": "address",
					"name": "from",
					"type": "address"
				},
				{
					"internalType": "address",
					"name": "to",
					"type": "address"
				},
				{
					"internalType": "uint256",
					"name": "tokenId",
					"type": "uint256"
				},
				{
					"internalType": "bytes",
					"name": "data",
					"type": "bytes"
				}
			],
			"name": "safeTransferFrom",
			"outputs": [],
			"stateMutability": "nonpayable",
			"type": "function"
		},
		{
			"inputs": [
				{
					"internalType": "address",
					"name": "operator",
					"type": "address"
				},
				{
					"internalType": "bool",
					"name": "approved",
					"type": "bool"
				}
			],
			"name": "setApprovalForAll",
			"outputs": [],
			"stateMutability": "nonpayable",
			"type": "function"
		},
		{
			"inputs": [
				{
					"internalType": "bytes4",
					"name": "interfaceId",
					"type": "bytes4"
				}
			],
			"name": "supportsInterface",
			"outputs": [
				{
					"internalType": "bool",
					"name": "",
					"type": "bool"
				}
			],
			"stateMutability": "view",
			"type": "function"
		},
		{
			"inputs": [],
			"name": "symbol",
			"outputs": [
				{
					"internalType": "string",
					"name": "",
					"type": "string"
				}
			],
			"stateMutability": "view",
			"type": "function"
		},
		{
			"inputs": [
				{
					"internalType": "uint256",
					"name": "tokenId",
					"type": "uint256"
				}
			],
			"name": "tokenURI",
			"outputs": [
				{
					"internalType": "string",
					"name": "",
					"type": "string"
				}
			],
			"stateMutability": "view",
			"type": "function"
		},
		{
			"inputs": [
				{
					"internalType": "address",
					"name": "from",
					"type": "address"
				},
				{
					"internalType": "address",
					"name": "to",
					"type": "address"
				},
				{
					"internalType": "uint256",
					"name": "tokenId",
					"type": "uint256"
				}
			],
			"name": "transferFrom",
			"outputs": [],
			"stateMutability": "nonpayable",
			"type": "function"
		}
	]
}